:020000040800F2
:1000000000480020D9010008C72B0008AF290008CC
:10001000C52B000821060008593E0008000000001A
:10002000000000000000000000000000253700086C
:10003000E106000800000000652C000827370008D2
:10004000F3010008F3010008F3010008F3010008C0
:10005000F3010008F3010008F3010008F3010008B0
:10006000F3010008F3010008F3010008F3010008A0
:10007000F3010008F3010008F3010008F301000890
:10008000F301000831060008F3010008F30100083D
:1000900025060008F3010008F3010008F301000839
:1000A000F301000819380008F3010008F301000803
:1000B0002538000831380008F3010008F301000872
:1000C000F3010008F3010008F3010008F301000840
:1000D000F3010008F3010008353E0008F3010008B1
:1000E000F3010008F3010008F3010008F301000820
:1000F000F3010008F3010008F3010008F301000810
:1001000000000000F3010008F3010008F3010008FB
:100110000000000000000000F3010008F3010008E7
:10012000F3010008F3010008F3010008F3010008DF
:10013000F3010008F3010008F3010008F3010008CF
:10014000F3010008F3010008F3010008F3010008BF
:10015000F3010008F3010008F3010008F3010008AF
:10016000F3010008F3010008000000000000000097
:10017000000000000000000000000000000000007F
:10018000F3010008F3010008000000000000000077
:10019000F3010008F3010008000000000000000067
:1001A000000000000000000000000000000000004F
:1001B000F30100080000000000000000F301000847
:1001C000F3010008DFF80CD000F0ACF8004800475D
:1001D0003D51000800480020064880470648004777
:1001E000FEE7FEE7FEE7FEE7FEE7FEE7FEE7FEE7E7
:1001F000FEE7FEE7C5370008C50100082DE9F05FFE
:100200000546002092469B46884606468146402485
:100210001BE0284641464746224600F073F8534605
:100220005A46C01A914110D311461846224600F092
:100230005AF82D1A67EB01084F462246012000218B
:1002400000F051F817EB00094E41201EA4F1010403
:10025000DFDC484631462A464346BDE8F09FD2B22D
:1002600001E000F8012B491EFBD270470022F6E79F
:1002700010B513460A4604461946FFF7F0FF20461C
:1002800010BD421E12F8013F002BFBD111F8013BBB
:1002900002F8013B002BF9D17047421C10F8011BFA
:1002A0000029FBD1801A7047034611F8012B00F892
:1002B000012B002AF9D11846704730B50B4601468C
:1002C00000202022012409E021FA02F59D4205D3F5
:1002D00003FA02F5491B04FA02F52844151EA2F19F
:1002E0000102F1DC30BD202A04DB203A00FA02F1E1
:1002F000002070479140C2F1200320FA03F3194314
:1003000090407047202A04DB203A21FA02F00021B5
:10031000704721FA02F3D040C2F120029140084315
:1003200019467047064C074D06E0E06840F00103AF
:1003300094E8070098471034AC42F6D3FFF746FF25
:100340001456000834560008F0B5074627A00D469D
:1003500089B0D0E90010FF24009401940294CDE903
:10036000071016462B7807AA22A103A803F076FDF2
:1003700003A93846FFF798FF9DF81D000094401C24
:100380008DF81D00019402946B8807AA19A103A897
:1003900003F064FD03A93846FFF773FF9DF81D00C5
:1003A0000094401C8DF81D00019402942B7907AA3B
:1003B00010A103A803F052FD03A93846FFF761FF1F
:1003C0009DF81D000094401C8DF81D0001940294BE
:1003D0006B7907AA07A103A803F040FD03A93846DB
:1003E000FFF74FFF0120307009B0F0BD6E302E7660
:1003F000616C3D002573256425632563256300003A
:10040000F0B587B0FF2400940194029416460D467F
:1004100007468B79042240A103A803F01FFD03A91E
:100420003846FFF741FF0094019402940522EB79CE
:1004300039A103A803F012FD03A93846FFF721FFF5
:1004400000940194029406222B7A33A103A803F0AE
:1004500005FD03A93846FFF714FF009401940294A8
:1004600007226B7A2CA103A803F0F8FC03A93846F5
:10047000FFF707FF0094019402940822AB7A26A1AB
:1004800003A803F0EBFC03A93846FFF7FAFE00943B
:10049000019402940922EB7A1FA103A803F0DEFC69
:1004A00003A93846FFF7EDFE0094019402940A2256
:1004B0002B7B19A103A803F0D1FC03A93846FFF751
:1004C000E0FE0094019402940B226B7B12A103A81E
:1004D00003F0C4FC03A93846FFF7D3FE009401944F
:1004E00002940C22AB7B0CA103A803F0B7FC03A978
:1004F0003846FFF7C6FE0094019402940D22EB7B70
:1005000005A103A803F0AAFC03A93846FFF7B9FE2A
:100510000120307007B0F0BD6E25642E76616C3D11
:1005200025642563256325630000000070B5164629
:100530008EB04A7A8D7A0C7ACB79CDE90A420C9545
:1005400009938979CDE90542CDE90751CDE900420A
:100550000295CDE903130A4603A103F07FFC0120B5
:1005600030700EB070BD000025643B25643B2564EF
:100570003B25643B25643B25643B25643B25643B6C
:1005800025643B25643B25643B25643B25643B2572
:10059000643B25640D0A00000146014801F01BBBC5
:1005A0005800002010B5044801F027FB042801D0B2
:1005B000012010BD002010BD5800002082B0012095
:1005C0008DF800009DF80000012802D0012002B043
:1005D0007047024802B001F029BB0000580000201B
:1005E00038B50024009313460A460146034801F03B
:1005F000C1FB00B10124204638BD00005800002096
:1006000038B50024009313460A460146034801F01A
:100610008AFC00B10124204638BD000058000020AB
:10062000FEE70000014800F0F6B8000030000020AE
:10063000014800F047BB0000740700200168182340
:10064000CAB2103AB2FBF3F2054B6FF30901032A69
:100650009B5CC36500D9091D816508467047000091
:100660005855000810B5014600208B698A6A4FF082
:10067000C07453B1B3F5005F15D072B1012A0CD02C
:10068000022A0AD0032A09D104E01AB1012A06D0AD
:10069000022A03D1C96AC90100D5012010BDC96A67
:1006A000A142FAD010BD002AF7D0012AF2D0022AC6
:1006B000F3D0032AF3D010BD30B50468256825F4C3
:1006C00080252560046863608368402B036803D03D
:1006D00099600068C26030BD9A600068C16030BD3A
:1006E00070477047002200F001B8000030B50E4B93
:1006F000054601205C7A002C14D1587A1C54587A93
:1007000003EB800045605D7A03F108002A54587AB3
:10071000421C5A72303008703A2048702F2088707E
:10072000CC70002030BD0000F4070020704730B5C9
:1007300090F82040012C05D0022C03D0416A41F4EE
:1007400080215DE00468002955D02469A40754D0B5
:100750004FF4D874056804EB01142D5915F0040505
:10076000956005682D594ED0ED08556005682C59E7
:10077000C4F34004D4604FF4DA74056804EB011448
:100780002D5905F00F05156105682D59C5F307258D
:10079000956105682C59240C54614FF4DC7204688F
:1007A00002EB0112A4581C700468A458240A5C705F
:1007B0000468A458240C9C700468A258120EDA70C5
:1007C0004FF4DE72046802EB0112A4581C71046835
:1007D000A458240A5C710468A458240C9C71046811
:1007E000A258120EDA71006881B1016941F020014E
:1007F0000161002030BDE468A8E7416A41F40011BE
:100800004162012030BD6D0D1560AFE7C16841F058
:100810002001C160EDE72DE9F05F05460068002486
:100820004669D0F804908768D0F80CB0D0F810A0D2
:10083000D0F81880F10748D0F90714D00121816061
:10084000B80703D5284600F0DDF90CE0780702D59B
:100850004FF4006407E0380702D54FF4805402E0FB
:10086000284600F0CEF9F80516D529684FF48070B7
:100870008860B80503D5284600F0C6F90CE0780575
:1008800002D544F4005407E0380502D544F480440E
:1008900002E0284600F0B7F9F80316D529684FF4AE
:1008A00080308860B80303D5284600F0AFF90CE02B
:1008B000780302D544F4004407E0380302D544F439
:1008C000803402E0284600F0A0F9300707D55FEA3F
:1008D000CB6004D52968102044F40074C860700708
:1008E0004FF0080707D55FEA0B7004D52868C7608A
:1008F000284600F059F9B00706D52868C068800777
:1009000002D0284600F052F9700607D55FEACA60A7
:1009100004D52968102044F480640861B00607D526
:100920005FEA0A7004D528680761284600F066F976
:10093000F00606D528680069800702D0284600F036
:100940005EF9B00308D55FEAC96005D529681020B3
:100950004860284600F054F9F00307D55FEA0970B3
:1009600004D528684760284600F051F9300446D580
:100970005FEA497040D5F00504D55FEAC87001D040
:1009800044F00104B00504D55FEA887001D544F055
:100990000204700504D55FEA487001D544F00404F0
:1009A000300529D518F0700F26D008F070004028C7
:1009B00015D006DC102809D020280AD0302816D1FE
:1009C0000AE050280ED0602811D10EE044F008044F
:1009D0000DE044F010040AE044F0200407E044F085
:1009E000400404E044F0800401E044F4807428688A
:1009F000816921F070018161296804204860002C20
:100A000005D0686A204368622846FFF78FFEBDE87C
:100A1000F09F70B5040003D094F8200010B104E0FA
:100A2000012070BD204600F081F82068016821F0A7
:100A30000201016000F098FB0546052604E000F085
:100A400093FB401B0A2811D8206840688007F6D421
:100A50002068016841F00101016000F085FB054656
:100A60000BE000F081FB401B0A2806D9606A40F4C5
:100A70000030606284F82060D2E720684068C007D8
:100A8000EFD0207E0128206801683DD021F0800150
:100A90000160607E01282068016838D021F04001A3
:100AA0000160A07E01282068016833D021F0200178
:100AB0000160E07E0128206801682ED041F010011D
:100AC0000160207F01282068016829D021F00801F9
:100AD0000160607F01282068016824D021F00401B2
:100AE0000160D4E902010843D4E904121143084328
:100AF0006168491E08432168C861002060620120C6
:100B000084F82000002070BD41F08001C0E741F072
:100B10004001C5E741F02001CAE721F01001CFE70D
:100B200041F00801D4E741F00401D9E710B586B0DF
:100B3000044614216846FFF799FB1849206888424B
:100B400029D117480021026842F000720260006853
:100B500000F00070059012481038026842F002025E
:100B60000260006800F0020005904FF440700090B1
:100B70000220CDE90101032003900820049069467A
:100B8000084800F027FA00220321142000F05CFB43
:100B9000142000F04BFB06B010BD000000640040C4
:100BA00040380240000402407047000010B504467F
:100BB0000068D0F8B0014FF44071B1EB505F07D13D
:100BC0000D4B0021A3F11C02A2F5D670FFF7AFFD7B
:100BD0002068D0F8B00140F20131B1EB505F0AD18A
:100BE000054BBDE810400833A3F124020021A2F513
:100BF000D670FFF79CBD10BDF8010020704770470C
:100C0000704770477047704770477047704770472C
:100C10002DE9F0410446876D00F0A6FA054694F8E8
:100C200035000026022806D08020606584F83460F4
:100C30000120BDE8F0812068016821F01601016003
:100C40002068416921F080014161206C08B9A06CE5
:100C500020B12068016821F0080101602068016866
:100C600021F0010101600BE000F07EFA401B052835
:100C700006D92020606504F8346F03206070D8E73F
:100C800020680068C007EFD194F85C103F208840CE
:100C9000B86004F8346F012060700020C9E790F854
:100CA0003510022903D080214165012070470521BC
:100CB00080F835100068016821F001010160002012
:100CC000704700002DE9F84304464FF00009CDF8C5
:100CD000009063484FF41651A56D0068B0FBF1F722
:100CE0002E6894F85C20082101FA02F030420FD0FF
:100CF0002068026852070BD5026822F004020260E5
:100D000094F85C008140A960606D40F0010060656E
:100D100094F85C104FF0010808FA01F0304208D056
:100D200021684969090604D5A860606D40F0020099
:100D3000606594F85C1004208840304208D0216837
:100D40000968890704D5A860606D40F004006065FB
:100D500094F85C1010208840304218D0216809684F
:100D6000090714D5A86020680168490304D5006804
:100D7000000308D5A16C07E00168C90503D4016828
:100D800021F008010160216C09B12046884794F8E0
:100D90005C1020208840304231D021680968C906A3
:100DA0002DD5A86094F8350005282068016806D084
:100DB000490347D5006800031DD4616C1CE021F095
:100DC000160101602068416921F080014161206CB9
:100DD00008B9A06C20B12068016821F00801016009
:100DE00094F85C103F208840A86084F8349084F820
:100DF0003580216D1FE0E16B09B120468847606DA9
:100E000000282BD0606DC00714D0052084F8350071
:100E10002068016821F0010101600098401C0090E9
:100E2000B84203D820680068C007F6D184F834902F
:100E300084F83580E16C002910D001B02046BDE86F
:100E4000F04308470168C905D5D4016821F01001B5
:100E5000016084F8349084F83580CCE7BDE8F883ED
:100E6000240000202DE9F041044600F07DF90546FC
:100E70005CB1002684F83460022084F835002068D4
:100E8000016821F0010101600DE00120BDE8F08161
:100E900000F06AF9401B052805D920206065032071
:100EA00084F83500F2E720680068C007F0D12168B7
:100EB0000A6820480240D4E901031843D4E9033505
:100EC0002B43184363691843A3691843E369184324
:100ED000236A18431043626A042A03D1D4E90B231E
:100EE0001A431043086020684069656A20F00701D2
:100EF00028460D43012704280CD1A06A0543E06A67
:100F000040B12046FFF7AEFB20B14020606584F879
:100F10003570BAE7206845612046FFF78FFB94F8EB
:100F20005C203F2191408160666584F83570002027
:100F3000ACE700003F8010F02DE9F0410446866DDB
:100F400090F83400002501280DD0012084F83400E9
:100F500094F835700020012F07D084F83400022562
:100F60002846BDE8F0810220FBE7022784F83570AF
:100F700060652046FFF7A0FB94F85C103F20884096
:100F8000B0602068016841F0160101602068416985
:100F900041F080014161206C20B12068016841F07E
:100FA000080101602068016841F001010160D7E794
:100FB00070B5044600F0D8F80546601C02D004481D
:100FC0000078044400F0D0F8401BA042FAD370BD72
:100FD000180000202DE9F84FDFF86491002209F194
:100FE000040A0AF1040B4FF00F080BF1040E01265E
:100FF0000B6896403340B34271D14C68022C01D04B
:10100000122C11D1D40800EB84073D6A5407E40E7A
:1010100008FA04FC25EA0C05D1F810C00CFA04FC0F
:101020004CEA050CC7F820C007685400032591F866
:1010300004C0A5400CF0030CAF430CFA04FC4CEACE
:10104000070CC0F800C04F68012F05D0022F03D055
:10105000112F01D0122F11D18768D1F80CC0AF43E6
:101060000CFA04FC4CEA070CC0F808C04768B74308
:101070000E79C6F3001696403E434660C668AE43FE
:101080008D68A5403543C5604C68E40051D52D4CB2
:10109000256845F480452560246822F0030504F4A2
:1010A00080440094284C2E19D6F808789407250F10
:1010B00008FA05F4A743254CA04201D1002410E012
:1010C000234CA04201D101240BE0224CA04201D1CB
:1010D000022406E0204CA04202D1032401E028E0D3
:1010E0000724AC403C43C6F80848D9F800404D46B8
:1010F0004E689C43F60300D51C432C60DAF8004090
:1011000055464E689C43B60300D51C432C60DBF863
:1011100000405D464E689C43F60200D51C432C609F
:10112000DEF8004075464E689C43B60200D51C436D
:101130002C60521C102AFFF45AAFBDE8F88F000053
:10114000003C0140443802400030014000000240B1
:101150000004024000080240000C02400AB1816114
:1011600070470904FBE700000148806870470000F1
:10117000180000200248816802781144816070479D
:10118000180000200B4810B5016841F4007101609F
:10119000016841F480610160016841F4807101607F
:1011A000032000F071F8002000F006F800F024F8A9
:1011B000002010BD003C024070B50D4D04464FF4B8
:1011C0007A712878B1FBF0F00A490968B1FBF0F0B8
:1011D00000F06BFF48B9102C07D200222146501EA8
:1011E00000F032F800206C6070BD012070BD00007E
:1011F00018000020240000200B4882B0016841F450
:1012000080410160006800F4804000900648001FA3
:10121000016841F080510160006800F0805000904A
:10122000042002B000F030B844380240002809DB46
:1012300000F01F02012191404009800000F1E020F0
:10124000C0F8001170470000F0B40E4B1B68C3F3E8
:101250000223C3F10704042C00D904241D1D072D0B
:1012600001D2002300E0DB1E012606FA04F56D1E04
:101270000D409D409E40761E164045EA0601F0BC9A
:1012800002F000BE0CED00E0064A00F00701106815
:101290004FF6FF03184040EA01200349084310605D
:1012A000704700000CED00E00000FA052DE9F84F52
:1012B000044600780025904EC00708D03068616968
:1012C00020F0C06008433060606900B901252078D3
:1012D000800708D53068A16920F0C050084330600D
:1012E000A06900B9012520784FF0000A00074FF0EF
:1012F000010B5DD580484C38016841F08051016098
:101300000068DFF8F88100F080500090D8F80010F5
:1013100041F48071C8F80010FFF726FF074604E08B
:10132000FFF722FFC01B02286FD8D8F80000C005C5
:10133000F6D5DFF8C481A8F11C08D8F8000010F435
:10134000407022D0A18B01F4407181421DD0D8F8A9
:1013500000106B4A21F44071C2F800B0C2F800A03E
:10136000C8F80010D8F80000C0070ED0FFF7FCFE48
:10137000074641F2883904E0FFF7F6FEC11B4945F4
:1013800043D8D8F800008007F6D5E0695A49C0F381
:1013900001228439032A39D0086820F4F810086043
:1013A000D8F80010A28BC2F30B021143C8F800104A
:1013B0002078DFF85091400703D594F83810C9F829
:1013C000E0112078C106504805D50168626A21F411
:1013D00040011143016021784FF00068890609D56A
:1013E0000168A26A21F0006111430160A16A4145D0
:1013F00000D101252178490605D50168226A21F02E
:1014000080511143016065B908E05AE00A683F4B1A
:1014100022F4F812184002430A60C1E720688028CD
:1014200055D15046DFF8E8A0CAF86800FFF79CFEE7
:10143000314D07468C3D04E0FFF796FEC01B0228A5
:101440003FD828680001F7D4616BC9F8D81020682C
:101450003049C20701D062697AB1820701D5A26919
:101460005AB1820602D5A26A424506D040060FD57F
:10147000206A68B9A06A40450AD1D4E9010240EA6D
:101480008210227B237C120642EA0372104308601A
:10149000207800060AD5D4E9010240EA8210227BB6
:1014A000237C120642EA037210430860CAF868B04F
:1014B000FFF75AFE074607E0FFF756FEC01B02285B
:1014C00002D90320BDE8F88F28680001F4D52088F0
:1014D000C00505D53068E16A20F00040084330605F
:1014E0002088800505D53068216B20F40040084332
:1014F00030600020E6E700008C38024000700040B9
:10150000400E47420010474294380240FFFCFF0F54
:1015100000004742843802402DE9F0470D460400A0
:1015200065D0DFF81491D9F80000EFB200F00F0099
:10153000A84207D289F80070D9F8000000F00F0027
:10154000A84254D120683D4E810712D5400703D5EB
:10155000306840F4E05030602078000703D53068F0
:1015600040F4604030603068A16820F0F00008432B
:1015700030602078C0072DD03049606808390128D4
:1015800012D0022813D0032811D009688907002936
:101590002DDA316821F0030101433160FFF7E4FDEA
:1015A000804641F2883A0EE009688903EFE709684E
:1015B0008901ECE7FFF7D8FDA0EB0801514502D9FE
:1015C0000320BDE8F0873068616800F00C00B0EBE4
:1015D000810FEFD1D9F80010484601F00F01A94260
:1015E00007D90770006800F00F00A84201D0012061
:1015F000E7E72078400705D53068E16820F4E0503F
:10160000084330602078000706D53068216920F44F
:10161000604040EAC100306000F036F83168084AA6
:10162000C1F30311515CC840064908600020FFF770
:10163000C3FD0020C5E70000003C0240083802401E
:101640006055000824000020044805490068096826
:10165000044AC1F38221515CC84070472400002035
:1016600008380240705500080448054900680968B8
:10167000044AC1F34231515CC84070472400002045
:101680000838024070550008154810B5006810F081
:101690000C01144813D0431004290FD008290ED18F
:1016A0000F4C241F216801F03F022168490207D531
:1016B0002068C0F38810A0FB030106E0184610BDA7
:1016C0002168C1F38811A1FB00010023FEF796FDFC
:1016D0002168C1F30141491C4900B0FBF1F010BD84
:1016E000083802400024F4002DE9F84F0446007841
:1016F000BD4DC00748D0BC4808300168C1F3810126
:10170000012908D00068C0F3810002280AD1281DF1
:101710000068400206D52868800335D56068002837
:101720006FD031E06068B0F5803F10D0B0F5A02FE9
:10173000286810D020F480302860286820F48020A9
:1017400028606068A0B1FFF70FFD06460CE028682E
:1017500040F48030F4E740F480202860F7E7FFF79A
:1017600003FD801B642872D828688003F7D50BE03E
:10177000FFF7FAFC064604E0FFF7F6FC801B64283E
:10178000F1D828688003F7D42078DFF860928007CA
:101790004FF0000A3ED594480830016811F00C0F54
:1017A00009D00068C0F3810002280BD18E48001DCB
:1017B0000068400206D42868800714D5E068012834
:1017C0001FD110E0E068B0B10120C9F80000FFF7B8
:1017D000CBFC064604E0FFF7C7FC801B0228C2D8FA
:1017E00028688007F7D52868216920F0F80040EACA
:1017F000C10028600EE0C9F800A0FFF7B5FC06465E
:1018000005E0EFE0FFF7B0FC801B02281FD8286836
:101810008007F7D42078000722D5734F7448616998
:10182000743771B101210160FFF79EFC064604E0A8
:10183000FFF79AFC801B022809D838688007F7D583
:101840000EE0C0F800A0FFF78FFC064605E083E03D
:10185000FFF78AFC801B02287ED838688007F7D4FF
:101860002078400769D5DFF880B14FF000080BF110
:10187000400BDBF80000C0000CD4DBF8001041F096
:101880008051CBF80010DBF800004FF0010800F0A9
:1018900080500090574F3868C0050FD4386840F426
:1018A00080703860FFF760FC064604E0FFF75CFCE0
:1018B000801B022850D83868C005F7D54A4FA06869
:1018C000703701280FD00528386810D020F00100AB
:1018D0003860386820F004003860A068B0B1FFF7C5
:1018E00043FC06460EE0386840F00100F4E740F0A3
:1018F00004003860F7E7FFF737FC811B41F28830BE
:10190000814267D838688007F5D50DE0FFF72CFCD9
:10191000064606E0FFF728FC811B41F28830814231
:1019200058D838688007F5D4B8F1000F05D0DBF837
:10193000001021F08051CBF80010A069D8B32A49DB
:1019400008310968C1F3810102294BD002285046B1
:1019500007D0C9F8600000E03CE0FFF705FC044652
:101960003BE04F46C9F86000FFF7FEFB064604E087
:10197000FFF7FAFB801B02282CD828688001F7D4D7
:10198000F4E907010843E1681B4A490802EB0141F9
:10199000A26841EA82110843217C40EA0160217D6E
:1019A00040EA01711048001D016001203866FFF710
:1019B000DBFB044605E013E0FFF7D6FB001B022823
:1019C00008D828688001F7D50AE0FFF7CDFB001B97
:1019D000022802D90320BDE8F88F28688001F4D4DA
:1019E0000020F8E70120F6E70038024000004742F7
:1019F000800E4742007000400000FFFFF0B5426ECD
:101A0000120E93090B70C2F383034B7002F00302B2
:101A10008A70426E120CCA70B0F86420120A0A7101
:101A200090F864204A71826E4FF6FF73120E03EA3B
:101A30000212CA80826ECB88C2F3074243EA1213B5
:101A4000CB8002F00F020A72B0F86820C2F30722BE
:101A5000D3094B72C2F380138B72C2F34013CB7263
:101A6000C2F300130B7300244C73456C4FF40076E3
:101A700001236DB1012D43D0026840F2FF51916303
:101A8000816B41F08051816380F834300120F0BDDA
:101A90009207120D0A6190F868200D6945EA8202EA
:101AA0000A61C26E0D69120E45EA92150D61C2F30C
:101AB000C2050D7502F007024A75C26EC2F30742F5
:101AC00055098D75C2F38205CD759207520F0A76BE
:101AD000B0F86C200D7EC2F3072245EAD2150D76D0
:101AE0000D696D1C45650F7EBF1CBD4045650F7AB5
:101AF00003FA07F787657F0A7D43C0E917561CE0A4
:101B000090F868209206920A0A61C26E0D69120E60
:101B100045EA02220A61C26E0D69C2F3074215430B
:101B20000D61B0F86C200D69C2F307226D1C4FEAFD
:101B300085254565C0E916650666C2F3801501F87E
:101B4000195F4FEA82624FEA52624A7010F86C2FB6
:101B50004D7845EAD2154D7002F07F028A704268D6
:101B60004FEA12624FEAD215CD70C2F341150D71E2
:101B7000C2F382054D714FEA82724FEA12728A7186
:101B800042688D79C2F3074245EA92158D71C2F31E
:101B90004015CD710C7202F001024A728288C2F3C4
:101BA00007224FEAD2148C72C2F38014CC72C2F3B3
:101BB00040140C73C2F300144C73C2F381048C7391
:101BC00002F00302CA7300794FEA500008744B74A4
:101BD0004FF00000F0BD426C0A60826C4A60C26C3B
:101BE0008A60026DCA60426D0A61826D4A61C26D8F
:101BF0008A61006EC8610020704738B50025044630
:101C00000095B0F850000104206801F077FA28B977
:101C10000021206801F0BEF80090284610B1A16BA9
:101C20000143A1630098C0F3432038BD70B50400A0
:101C300004D094F83400002510B105E0012070BDF7
:101C40002577204600F038F8032084F83400204639
:101C500000F008F8A5632563012084F83400002013
:101C600070BD0000FEB50025044676200095CDE944
:101C700001502B462A462946206801F091F80D4E66
:101C800046F8A05F206801F09DF80125356002202C
:101C9000FFF78EF9204601F046FC20B9204601F0FE
:101CA000CFFB002805D084F83450A16B0143A16319
:101CB0000120FEBD00802542F0B587B00446142106
:101CC0006846FEF7D3FA26492068884245D1254860
:101CD0000024016841F400610160006800F40060C4
:101CE000059020481438016841F002010160016844
:101CF00001F002010591016841F0040101600168F1
:101D000001F004010591016841F0080101600068DB
:101D1000022500F0080005904FF40040CDE90005D1
:101D200002AA03260C2782E8D00069460E48FFF776
:101D300051F9E801CDE9000502AA694682E8D00020
:101D40000A48FFF747F90420CDE9000502AA6946D1
:101D500082E8D0000648FFF73DF907B0F0BD00006B
:101D6000002C0140443802400004024000080240B8
:101D7000000C02402DE9F04F87B09B4616460D46F9
:101D80000446109FFFF7F0F981463DB194F8340006
:101D9000012807D0A06B40F000500DE0A06B40F090
:101DA000006009E00020A063E26D06EB0B019142A8
:101DB00004D9A06B40F00070A06383E0032184F895
:101DC000341021688046C862606C012800D0760219
:101DD0004FF40071206801F0A9F840F2FF5A012188
:101DE00040B12368C3F838A0A26B0243A26384F811
:101DF000341067E04FF0FF3000904FEA4B20019025
:101E0000902002900220CDE903080591884669469A
:101E1000206800F0A9FFBBF1010F06D90220206362
:101E20003146206801F0F6F805E0C4F8308031460C
:101E3000206801F007F938B32268C2F838A0A16B16
:101E40000143A1633CE0406B000409D500262068F3
:101E500000F0BCFF45F82600761C082EF7D320358D
:101E60002FB1FFF781F9A0EB0900B8420CD321682C
:101E7000C1F838A0A06B40F00040A06384F8348023
:101E8000032007B0BDE8F08F2068416B11F4957F07
:101E9000D9D0416BC90509D5BBF1010F06D9616CD9
:101EA000032903D001F05AF90028C5D12068416BFD
:101EB000090709D5C0F838A0A06B40F0080025E05C
:101EC00084F834800120DCE7416B890705D5C0F830
:101ED00038A0A06B40F0020018E0416B890617D5CE
:101EE000C0F838A0A06B40F020000FE000F06EFFBB
:101EF00001C52FB1FFF738F9A0EB0900B84207D3AD
:101F00002168C1F838A0A06B40F00040A063D7E77B
:101F10002068416B8902E9D42168C1F838A084F8AF
:101F200034800020ADE72DE9F04F87B09A46154682
:101F30000E460446DDF840B0FFF716F906903EB1B4
:101F400094F83400012807D0A06B40F000500DE059
:101F5000A06B40F0006009E00020A063E26D05EB9B
:101F60000A01914204D9A06B40F00070A0632EE0FA
:101F7000032184F8341021680020C862606C0128B5
:101F800000D06D024FF40071206800F0CFFF40F2E6
:101F9000FF584FF0010900285FD1BAF1010F06D9AF
:101FA000202020632946206801F0F2F805E0102087
:101FB00020632946206801F003F907000BD021684F
:101FC000C1F83880A06B384369E084F83490012070
:101FD00007B0BDE8F08F4FF0FF3000904FEA4A2085
:101FE0000190902002900020CDE9040903906946F9
:101FF000206800F0B9FE1FE0406B400409D50025C1
:1020000006EB8501206800F0F4FE6D1C082DF7D367
:102010002036BBF1000F05D0FFF7A6F80699411A4C
:10202000594509D32168C1F83880A06B3843A063B3
:1020300084F834900320CBE72068416B11F48D7F46
:10204000DAD0416BC9050FD5BAF1010F0CD9616C1B
:10205000032909D001F082F830B12268C2F8388033
:10206000A16B0143A163B0E72068416B090705D567
:10207000C0F83880A06B40F0080010E0416B890781
:1020800005D5C0F83880A06B40F0020007E0416B36
:10209000C0F83880C90604D5A06B40F01000A063DA
:1020A00093E784F83490002092E710B5401EB0F119
:1020B000807F01D3012010BD4FF0E02460610F212B
:1020C000601701F0DFFE0020A061072020610020E2
:1020D00010BD7047704770B590F83C20012A19D0A8
:1020E000012500F83C5F0222427050F83C2C5368F6
:1020F000946823F070060B684968334324F0800429
:102100002143536050F83C2C9160457000210170D0
:10211000084670BD022070BD10B5040003D094F8CD
:102120003D0010B107E0012010BD002084F83C0004
:10213000204600F00DF8022084F83D00211D2068A3
:1021400001F07CFB012084F83D00002010BD000060
:1021500008B500681E4988420FD11E48016841F049
:10216000010101600068002200F0010000900121DF
:102170001920FFF769F8192015E01649091FB0F179
:10218000804F14D0144A904220D1086840F00200D9
:1021900008600868012200F00200009011461D202E
:1021A000FFF752F81D20BDE80840FFF73FB8086868
:1021B00040F0010008600868002200F00100009073
:1021C00011461C20FFF740F81C20ECE708BD00007A
:1021D0000000014044380240000400400168CA6821
:1021E00042F00102CA600068816801F00701062917
:1021F00003D0016841F001010160002070470168CF
:10220000CA6822F00102CA600068016A41F2111234
:10221000114207D1016A9210114203D1016821F0E5
:10222000010101600020704770B5044690F83C0041
:10223000012817D0012584F83C50022084F83D0085
:102240002068826822F0770222F47F428260086868
:10225000502830D00DDC20284DD005DC98B3102854
:102260003BD148E0022070BD302844D0402834D112
:1022700039E0602828D0702806D0B0F5805F2CD0D7
:10228000B0F5005F29D10AE0CB68D1E901212068CF
:1022900001F038FB2068816841F0770109E0CB68E4
:1022A000D1E90121206801F02DFB2068816841F40B
:1022B0008041816011E0CA684968206801F034FB00
:1022C0005021206807E016E0CA684968206801F0DC
:1022D0003CFB6021206801F01FFB84F83D5000208A
:1022E00084F83C0070BDCA684968206801F01CFB96
:1022F00040212068EFE7226801461046EBE770476F
:1023000070B50446006801694FF00005C9438907AC
:1023100015D4C168C943890711D4E91E01610120A0
:102320002077206880698007204602D0FFF7E7FF0A
:1023300004E000F098F8204600F096F82577206831
:102340000169C943490717D4C168C943490713D470
:102350006FF004010161022020772068806910F489
:10236000407F204602D0FFF7CAFF04E000F07BF870
:10237000204600F079F8257720680169C9430907EC
:1023800016D4C168C943090712D46FF0080101616E
:10239000042020772068C0698007204602D0FFF71C
:1023A000AEFF04E000F05FF8204600F05DF825770E
:1023B00020680169C943C90617D4C168C943C90661
:1023C00013D46FF010010161082020772068C069E4
:1023D00010F4407F204602D0FFF791FF04E000F0A8
:1023E00042F8204600F040F8257720680169C9438B
:1023F000C90708D1C168C943C90704D1891E016151
:10240000204600F033F820680169C943090609D461
:10241000C168C943090605D46FF0800101612046F7
:10242000FFF757FE20680169C943490609D4C1680E
:10243000C943490605D46FF040010161204600F010
:1024400055F820680169C94389060BD4C168C9439E
:10245000890607D46FF0200101612046BDE8704075
:10246000FFF738BE70BD70477047000010B50446D6
:1024700000681A4988420BD1194901F1F20000F0B5
:10248000F2FB1749174AF231A1F1D200FDF75CFFC8
:102490002068B0F1804F0CD1114901F1F20000F039
:1024A00002FC0F490F4AF231921CA1F19600FEF78F
:1024B0003DF80D49206888420ED1094901F1F2002A
:1024C00000F0DBFB074A0649521CF231BDE8104020
:1024D000A1F19600FDF794BF10BD0000000001407F
:1024E000F80100200A00002000040040704710B5E9
:1024F00004460068416994F83920C1F3C011212ACB
:102500000BD151B1416921F080014161206B08B1CB
:10251000FEF77EFB204601F081FA2068416994F8BD
:102520003A20C1F38011222A0BD151B1416921F027
:1025300040014161606B08B1FEF76AFB204601F083
:102540005FFA002010BD704770B50268044610683D
:10255000D168536910F00F0F50D003F0010501F45A
:10256000907635435DD0C20705D0CA0503D5E26B2E
:1025700042F00102E263420705D5DA0703D0E26BBD
:1025800042F00202E263820705D5DA0703D0E26B6C
:1025900042F00402E263020705D5DA0703D0E26BDA
:1025A00042F00802E263E26B002A33D0800604D5D1
:1025B000880602D5204601F03AFA20684069E16BAE
:1025C000C0F38010090700D428B3204601F018FAA0
:1025D0002068416949061AD5416921F040014161ED
:1025E000606BA0B11B490165606BFEF758FB0028CA
:1025F00010D0606B016DBDE870400847830610D5B0
:102600008B060ED52046BDE8704001F010BA20467A
:10261000FFF799FF70BD2046FFF795FF0020E063AC
:1026200070BD030606D50B0604D52046BDE87040F4
:1026300001F09EBB4006F3D54806F1D5D16820468F
:1026400021F04001D160202184F8391000F0A8F970
:1026500070BD00006F39000870B5040004D094F814
:102660003900002510B106E0012070BD84F8385013
:10267000204600F023F8242084F839002068C1683F
:1026800021F40051C160204601F01CFA2068016964
:1026900021F4904101612068416921F02A014161E2
:1026A0002068C16841F40051C160E563202084F8CE
:1026B000390084F83A00002070BD000070B586B083
:1026C000064614216846FDF7D1FD2449306888424A
:1026D00041D123480025016841F4003101600068C0
:1026E00000F4003005901E481038016841F00101E7
:1026F00001600068694600F0010005900C20009020
:1027000002200190012002900320039007200490F2
:102710001448FEF75FFC154C134820604FF0006032
:1027200060604020C4E902050001C4E90405A56118
:10273000E561256220466562FEF794FB08B1FDF76E
:10274000D0FF3463002211462620A663FEF77CFDED
:102750002620FEF76BFD06B070BD0000004400406F
:102760004038024000000240A06002407407002090
:1027700090F83A30202B22D1F9B1F2B190F83830EC
:10278000012B1CD081628285C2850021C163222277
:1027900080F83A2080F838100168CA6842F48072E4
:1027A000CA6001684A6942F001024A610068C16872
:1027B00041F02001C16000207047012070470220D5
:1027C0007047000010B5134CA1792046407901B93B
:1027D00050B11149A2798854A179491CA171FF28EF
:1027E00002D1E079401CE071E079032807D10B4A5F
:1027F0000949084800F06EFA0020E071A07101203C
:10280000607004490246BDE81040491D0448FFF7C6
:10281000AFBF00000800002068070020FC02002075
:102820009C0100202DE9F843044690F839001E462B
:1028300017460D46202850D1A5B19FB194F8380015
:1028400001284AD0012084F838004FF00008C4F86D
:102850003C80212084F83900FEF786FCA78481465D
:10286000E78426E00120BDE8F883E08C401EE08488
:10287000A0684B46B0F5805F4FF000024FF080013A
:102880002046009603D001F0A4FAE8B90DE001F06B
:10289000A0FAC8B928882168C0F3080048602069F8
:1028A00008B16D1C05E0AD1C03E0216815F8010BB3
:1028B0004860E08C0028D8D14B46002240212046B9
:1028C000009601F086FA08B10320CCE7202084F8B6
:1028D000390084F838800020C5E70220C3E70000F3
:1028E000F7B5044690F83900202831D1019969B331
:1028F00062B394F8380001282AD0012084F8380007
:102900002162A284E2840025E563212084F8390055
:10291000236B1048D863236B0F481864236B0F4850
:10292000D864206B134605652668206B321DFEF7C0
:1029300003FB21686FF04000086084F8385020687D
:10294000416941F0800141610020FEBD0120FEBDD2
:102950000220FEBDC9390008F73900087F39000898
:1029600090F83930202B18D1A9B1A2B190F83830A5
:10297000012B12D001628284C2840021C163212212
:1029800080F8392080F838100068C16841F0800173
:10299000C16000207047012070470220704700008E
:1029A0000149012048707047080000207047FEE789
:1029B00010B5062204A10648FFF7D2FFBDE810407B
:1029C0004FF4FA60FEF7F4BA49444C450D0A000092
:1029D0009C0100200B480A494FF410220160082195
:1029E000416000218160C0E903124FF4C0024261DE
:1029F000017641768176C17601774177FEF709B895
:102A0000006400403000002010B504490448FDF780
:102A100069FE0249491E087010BD00001200002026
:102A20004455000830B587B014216846FDF71EFCF8
:102A300021480024016841F080010160016801F033
:102A400080010591016841F001010160016801F018
:102A500001010591016841F002010160016801F086
:102A600002010591016841F004010160016801F073
:102A700004010591016841F00801016000680F4DF3
:102A800000F008000590002207212846FEF766FBAB
:102A9000072000900120CDE90104694628460394EF
:102AA000FEF798FA8020CDE90004694604480294B4
:102AB000FEF790FA07B030BD303802400004024003
:102AC0000008024010B586B0002413480094019419
:102AD0000294039404940F490594016041F61F4148
:102AE000C0E9011440F6C311C0E9031444618461D4
:102AF000FFF712FB4FF48050009069460648FFF73D
:102B000093FB049404A904480594FFF7E4FA06B083
:102B100010BD000000000140DC00002010B586B0B0
:102B200000241248009401940294039404944FF0FA
:102B300080410594016041F61F41C0E9011442F251
:102B40000F71C0E903148461FFF7E6FA4FF4805077
:102B5000009069460548FFF767FB049404A9034801
:102B60000594FFF7B8FA06B010BD00001C01002064
:102B700010B586B000241248009401940294039486
:102B800004940E490594016047F27F01C0E90114E5
:102B900041F28731C0E903148461FFF7BDFA4FF4B5
:102BA0008050009069460648FFF73EFB049404A954
:102BB00003480594FFF78FFA06B010BD00040040EB
:102BC0005C010020FEE770472DE9F041044690F8D3
:102BD0006B04002615468846012804D1204600F0E3
:102BE0000DF984F86B642878012819D104F50C706C
:102BF0000746D4F83C1201F029FD4046FDF74DFB95
:102C0000024604F58C634146384601F094FF38468D
:102C100001F04AFF082203A10548FFF7A1FE2E702C
:102C2000BDE8F08153445F52756E0D0A000000004C
:102C30009C01002070B50646087814460D46012810
:102C40000DD1207801280AD13046FDF726FB82B24B
:102C500031460348FFF744FE00202070287070BD05
:102C60009C01002070470278521C02704A78428012
:102C70008A780271C978417170478279521C8271D9
:102C80004A79C2718A790272CA7942720A7A827268
:102C90004A7AC2728A7A0273CA7A42730A7B827350
:102CA000497BC17370478279521C82714A79C27123
:102CB0008A790272CA7942720A7A82724A7AC27236
:102CC0008A7A0273CA7A42730A7B8273497BC17320
:102CD000704700002DE9F041044600780D46174684
:102CE000032802D1104600F0CDFCA878002110285E
:102CF00030D00125112805D08E1E12280BD01328A4
:102D000028D112E025701548FFF779FABDE8F041A7
:102D10001348FFF774BA022020701048FFF76FFACB
:102D20000F48006806610E4810E02078032811D093
:102D30000C48FFF764FA0A48FFF761FA87F86B540A
:102D4000032020700548006806610448BDE8F04192
:102D5000FFF744BA2170BDE8F08100001C0100209B
:102D60005C010020DC0000200A6842624A6882623E
:102D7000D1E902231A43D1E904310B43C16A1A4352
:102D800021F0F7011143C16200207047006800F094
:102D90000300704708B5084414300090006808BD6F
:102DA00070B50DF1100C11439CE8700023431943DA
:102DB00029434268314347F6FF639A430A4342601E
:102DC000002070BD0321016000207047D0F8800012
:102DD00070470A688260D1E901231A43D1E90331BF
:102DE0000B43C1681A436FF30B011143C16000200C
:102DF00070470968C0F880100020704710B504467D
:102E000001221E4901F022FD4FF096034FF0080207
:102E100008B11BA116E01DA11F48FFF703FD6423A5
:102E200003221E491C48FFF7FDFC0A2204F26441FC
:102E300004F50C7001F036FD4FF096034FF00802D8
:102E4000C8B117A11448FFF7EDFC6423032213490E
:102E50001148FFF7E7FC15496FF0010009680861A8
:102E60001248FFF7BBF9C823BDE81040092210A1A2
:102E70000948FFF7D7BC11A1E4E7000012000020C9
:102E80007669732070312C30000000007669732061
:102E900070302C31000000009C0100200000002058
:102EA0007669732070302C3000000000DC000020B8
:102EB00053445F496E69740D0A00000076697320FF
:102EC00070312C310000000010B586B0044600912E
:102ED0003721019140210020CDE902100801049022
:102EE00069462046FFF775FF41F2883237212046B8
:102EF00000F07EF906B010BD10B50B4A86B004464E
:102F000011432920CDE900104020029000200390B9
:102F1000500D049069462046FFF75BFF204600F005
:102F20001DFA06B010BD00000000108010B586B07C
:102F3000044600911021019140210020CDE90210AA
:102F40000801049069462046FFF743FF41F28832AA
:102F50001021204600F04CF906B010BD30B585B008
:102F600000250446009501954FF480600295CDE957
:102F7000035069462046FFF72CFF0B484FF4FA51E7
:102F80000068B0FBF1F141F288304143491E02D2A2
:102F90004FF0004505E0606B0006F7D540F2FF50AA
:102FA000A06305B0284630BD2400002070B585B070
:102FB00004464FF4D570009001A908204025002652
:102FC00081E86100C001049069462046FFF701FFD7
:102FD0000F484FF4FA510068B0FBF1F041F288312C
:102FE0004843401E02D24FF000460DE0616B11F0E5
:102FF000450FF6D0606B400702D5A563042603E0B9
:10300000606B400600D5A56305B0304670BD00007A
:103010002400002010B586B00446009112210191D1
:1030200040210020CDE902100801049069462046A5
:10303000FFF7CFFE41F288321221204600F0D8F887
:1030400006B010BD10B586B0044600911121019163
:1030500040210020CDE90210080104906946204675
:10306000FFF7B7FE41F288321121204600F0C0F888
:1030700006B010BD10B586B004460721402000926E
:10308000CDE90110002003904FF480600490694660
:103090002046FFF79EFE41F288320721204600F0CD
:1030A000A7F806B010BD10B586B000210222044674
:1030B000C020CDE90201CDE900125002049069461A
:1030C0002046FFF786FE204600F020F906B010BD2E
:1030D00010B586B00446009109210191C02100205D
:1030E000CDE902104FF48060049069462046FFF756
:1030F00070FE204600F00AF906B010BD10B586B08B
:10310000044600910D21019140210020CDE90210DB
:103110000801049069462046FFF75BFE41F28832C1
:103120000D21204600F064F806B010BD30B585B022
:10313000054600230320CDE900304020CDE90203FD
:1031400000010C46049069462846FFF742FE2246DD
:103150000321284600F022F905B030BD10B586B035
:103160000021044640200C22CDE90201CDE90012E5
:103170000001049069462046FFF72BFE034A0C210C
:10318000204600F035F806B010BD000000E1F5055E
:1031900010B586B00446009119210191402100200C
:1031A000CDE902100801049069462046FFF711FEA0
:1031B00041F288321921204600F01AF806B010BDFD
:1031C00010B586B0044600911821019140210020DD
:1031D000CDE902100801049069462046FFF7F9FD89
:1031E00041F288321821204600F002F806B010BDE6
:1031F000444B10B51B684FF4FA54B3FBF4F353433C
:103200005B1E02D24FF0004010BD426B12F0450F22
:10321000F6D0426B520703D504218163084610BDE6
:10322000426BD20702D00121816303E00269D2B26E
:103230008A4201D0012010BD40F2FF51816300217C
:10324000FFF7A8FD3049084201D1002010BD002839
:1032500002DA4FF0007010BD410001D5402010BDD2
:10326000810001D5802010BDC10002D54FF48070CF
:1032700010BD010102D54FF4007010BD410102D50F
:103280004FF4806010BDC10102D54FF4006010BD45
:10329000010202D54FF4805010BD410202D54FF417
:1032A000005010BD810202D54FF4804010BDC10214
:1032B00002D54FF4004010BD410302D54FF4003059
:1032C00010BD810302D54FF4802010BDC10302D58B
:1032D0004FF4002010BD010402D54FF4801010BD42
:1032E000410402D54FF4001010BD810402D54FF403
:1032F000800010BD000702D54FF4000010BD4FF450
:10330000803010BD2400002008E0FFFD12494FF47A
:10331000FA520968B1FBF2F141F288325143491E79
:1033200002D24FF000407047426B12F0450FF6D0CA
:10333000416B490703D50421816308467047416BFF
:10334000C90703D0012181630846704740F2FF514D
:103350008163002070470000240000200E494FF4D4
:10336000FA520968B1FBF2F141F288325143491E29
:1033700002D24FF000407047426B12F0450FF6D07A
:10338000416B490703D5042181630846704740F229
:10339000FF51816300207047240000201F4B10B5AF
:1033A0001B684FF4FA54B3FBF4F341F288346343DF
:1033B0005B1E02D24FF0004010BD446B14F0450F6D
:1033C000F6D0436B5B0703D504218163084610BD2B
:1033D000436BDB0702D00121816303E00369DBB2A9
:1033E0008B4201D0012010BD40F2FF5181630021CA
:1033F000FFF7D0FC10F4604F04D0410406D54FF421
:10340000005010BD000C1080002010BD000402D53B
:103410004FF4805010BD4FF4803010BD24000020C8
:1034200010B5064C01202070FDF7BCF818B92078C3
:1034300020F001002070207810BD00001000002056
:1034400010B590B004460120ADF838002068FFF7B1
:103450009DFC002864D0606C032842D02068FFF7F0
:1034600022FE00285AD100212068FFF793FC6067F4
:1034700004212068FFF78EFCA06708212068FFF771
:1034800089FCE0670C212068FFF784FCC4F8800009
:10349000606C032825D00EA92068FFF747FE00289E
:1034A0003CD1606C03281CD0BDF8380020650104B5
:1034B0002068FFF70DFE002830D100212068FFF7BB
:1034C00069FC606604212068FFF764FCA06608219F
:1034D0002068FFF75FFCE0660C212068FFF75AFCCC
:1034E000206704212068FFF755FC000DE06403A964
:1034F0002046FEF783FAB4F8500000230204206847
:10350000FFF7B8FD002809D104F1100007C88DE8C5
:10351000070094E80F00FFF743FC002010B010BD37
:103520004FF08060FAE72DE9F84300250446009546
:103530000068FFF713FD00281AD12068FFF736FD59
:103540004FF080784FF6FF76D8B14FF08057A564E2
:103550000098411C0091B0421AD000212068FFF76A
:10356000B3FC20B900212068FFF7C6FC10B1384633
:10357000BDE8F88300212068FFF70CFCC00FE7D0FE
:103580001FE00127A7640098411C0091B04201D1BF
:103590004046EDE700212068FFF796FC0028E7D1C0
:1035A0004FF080412068FFF7A7FC0028E0D1002100
:1035B0002068FFF7EFFBC10FE5D0400001D567643D
:1035C00000E065640020D3E770B5064C0546012095
:1035D0002070FCF7F3FF18B92846FFF721FF207091
:1035E000207870BD1000002010B5124888B0144635
:1035F0000078C00702D0032008B010BDC1B1012976
:1036000005D0022908D003290CD00420F4E768462D
:10361000FCF7C2FF06980AE06846FCF7BDFF079872
:10362000208005E06846FCF7B7FF0798400A206055
:103630000020E1E71000002070B51D461646084640
:103640000124A31E2A463146FCF7CAFF20B9FCF725
:10365000A9FF0028FBD10024204670BDFFF7E0BE83
:1036600070B51D46164608460124A31E2A4631465B
:10367000FCF7C6FF20B9FCF795FF0028FBD100241A
:10368000204670BD1CB504461848FEF7B8FD04F589
:103690000C7000F0C7FF9623082215A11748FFF70A
:1036A000C1F86423032216491448FFF7BBF8962398
:1036B000082214A11148FFF7B5F86423032210492A
:1036C0000E48FFF7AFF80E4811A14268521C426045
:1036D000684600F0C3FB694604F26440FCF7E4FD71
:1036E0000B220DA10548FFF73BF91CBD1C01002072
:1036F0007669732070302C30000000009C0100209F
:10370000000000207669732070312C30000000002A
:1037100025642E545854000053445F4B6F6E696506
:10372000630D0A007047FDF725BD000030B5A3B05A
:1037300034216846FCF79AFD14211CA8FCF796FD7D
:103740003C210DA8FCF792FD1C480024016841F0C3
:1037500080510160006800F0805021901848016895
:1037600041F4404101600068022500F4404021908E
:1037700001200090000401908001CDE90650042052
:1037800008904820CDE909050320CDE90B056846DE
:10379000FDF7AAFF0F20CDE91C05E802CDE91E4088
:1037A00002211CA82094FDF7B7FE602017940D900D
:1037B00015940DA8FDF77AFD23B030BD40380240C6
:1037C000007000401048016841F4700101600F482A
:1037D000016841F0010101600C4A002108321160CA
:1037E00002680B4B1A400260031D0A4A1A60026805
:1037F00022F48022026005480C300160024958061C
:10380000803908607047000088ED00E00038024011
:10381000FFFFF6FE103000240148FEF771BD0000E6
:10382000DC0000200148FEF76BBD00001C010020F9
:103830000148FEF765BD00005C010020F0B502689C
:10384000254D264E264FDFF89CC0274B4FF0804E6B
:10385000A84209D0704507D0B04205D0B84203D085
:10386000604501D0984203D122F070044A68224397
:10387000A8421BD0704519D0B04217D0B84215D01D
:10388000604513D0984211D0184CA0420ED0184C6D
:10389000A0420BD0174CA04208D0174CA04205D034
:1038A000164CA04202D0164CA04203D122F4407420
:1038B000CA6822434C6922F08002224302608A686F
:1038C000C2620A688262A84201D0984201D10969A5
:1038D000016301214161F0BD00000140000400408E
:1038E00000080040000C004000040140004001407E
:1038F000004401400048014000180040001C004006
:103900000020004010B5846842EA032224F47F447A
:103910000A432243826010BD826822F070020A438B
:1039200042F007018160704710B5046A036A23F012
:1039300001030362836923F0F00343EA021324F0D6
:103940000A020A438361026210BD10B5036A23F0C4
:10395000100303628469036A24F4704444EA023267
:1039600023F0A00343EA01118261016210BD10B58A
:10397000806B0021C185C184FEF7E5FD10BD70B5E7
:10398000846B2068406994F83910C0F3C01000259A
:10399000212904D118B1E584204600F03FF82068C1
:1039A000406994F83A10C0F38010222904D118B16C
:1039B000E585204600F024F8E06B40F01000E0635D
:1039C0002046FEF7C0FD70BD10B50146806B09684A
:1039D0000968C9050CD40021C18401684A6922F034
:1039E00080024A610068C16841F04001C16010BDB9
:1039F000FEF7D6FF10BD10B5806BFEF7D7FF10BDE8
:103A00000168CA6822F49072CA6001684A6922F0AB
:103A100001024A61202180F83A1070470168CA68A3
:103A200022F0C002CA60202180F83910704710B51A
:103A300090F83A10222901D0022010BD8168B1F51A
:103A4000805F11D00169002901681FD0496801F029
:103A50007F03816A4A1C82620B70C18D491E090472
:103A6000090CC18518D02BE00269816A002A02681E
:103A7000526805D0D2B20A80816A491C8162ECE7A3
:103A8000C2F308020A80816A891CF7E74A68816AE2
:103A90004B1C83620A70E0E70168CA6822F02002CA
:103AA000CA600168CA6822F48072CA6001684A6903
:103AB00022F001024A61202180F83A10FEF782FECE
:103AC000002010BD2DE9F041044600680169E2685C
:103AD00021F4405111430161A1682069E269014369
:103AE0006069104301432068C26849F20C639A433D
:103AF0000A43C26020684169A26921F44071114300
:103B00004161E0696425B0F5004F974A9749206804
:103B10004FF032083FD0884201D090427CD1FDF76F
:103B2000A3FD00EBC00101EB001061688900B0FB50
:103B3000F1F6FDF799FD00EBC00101EB00106168A3
:103B40008900B0FBF1F0B0FBF5F06FF018014843CD
:103B500006EB800108EB0110B0FBF5F000F0F00679
:103B6000FDF782FD00EBC00101EB001061688900E8
:103B7000B0FBF1F0B0FBF5F006EB0016FDF774FDBD
:103B800000EBC00101EB001061688900B0FBF1F7A8
:103B9000FDF76AFDD2E0884201D090423DD1FDF7A9
:103BA00063FD00EBC00101EB001061684900B0FB50
:103BB000F1F0B0FBF5F00601FDF756FD00EBC0019A
:103BC00001EB001061684900B0FBF1F7FDF74CFD17
:103BD00000EBC00101EB001061684900B0FBF1F09F
:103BE000B0FBF5F06FF01801484307EB800108EBDC
:103BF000C100B0FBF5F000F0F80006EB4006FDF761
:103C000033FD00EBC00101EB001061684900B0FB1F
:103C1000F1F7FDF729FD3CE055E0FDF715FD00EB60
:103C2000C00101EB001061684900B0FBF1F0B0FB8E
:103C3000F5F00601FDF708FD00EBC00101EB0010F7
:103C400061684900B0FBF1F7FDF7FEFC00EBC00135
:103C500001EB001061684900B0FBF1F0B0FBF5F03A
:103C60006FF01801484307EB800108EBC100B0FB7F
:103C7000F5F000F0F80006EB4006FDF7E5FC00EB80
:103C8000C00101EB001061684900B0FBF1F7FDF7DE
:103C9000DBFC00EBC00101EB001061684900B0FBE8
:103CA000F1F0B0FBF5F06FF01801484307EB80012D
:103CB00008EBC100B0FBF5F000F0070021683044CC
:103CC0008860BDE8F081FDF7BFFC00EBC00101EBAF
:103CD000001061688900B0FBF1F6FDF7B5FC00EB60
:103CE000C00101EB001061688900B0FBF1F0B0FB8E
:103CF000F5F06FF01801484306EB800108EB011066
:103D0000B0FBF5F000F0F006FDF79EFC00EBC00103
:103D100001EB001061688900B0FBF1F0B0FBF5F039
:103D200006EB0016FDF790FC00EBC00101EB001064
:103D300061688900B0FBF1F7FDF786FC00EBC0017C
:103D400001EB001061688900B0FBF1F0B0FBF5F009
:103D50006FF01801484307EB800108EB0110B0FB3E
:103D6000F5F000F00F00A9E7001401400010014039
:103D700090F83910212901D0022070478168B1F5EF
:103D8000805F016A0BD04A1C0262026809785160A8
:103D9000C18C491E0904090CC1840ED017E00988A2
:103DA0000268C1F30801516001690029016A02D06B
:103DB000491C0162ECE7891CFBE70168CA6822F034
:103DC0008002CA600068C16841F04001C160002003
:103DD00070472DE9F0411E46174688460446069D69
:103DE0001CE0681C1AD025B1FDF7BEF9801BA84263
:103DF00014D92068C16821F4D071C160206841697C
:103E000021F001014161202084F8390084F83A0052
:103E1000002084F838000320BDE8F08120680168A4
:103E200038EA010004D00020B842DAD00020F3E7DD
:103E30000120F9E7074810B500680068C043800614
:103E400002D40448FEF753FBBDE810400148FEF7DA
:103E50007BBB00009C010020FEE700000FB4084B74
:103E600010B504A902AA039800F02CF8044602A990
:103E7000002000F003F9204610BC5DF814FB0000A0
:103E80007D4000080907090E002804DB00F1E0204E
:103E900080F80014704700F00F0000F1E02080F877
:103EA000141D704702E008C8121F08C1002AFAD189
:103EB00070477047002001E001C1121F002AFBD1AA
:103EC000704700002DE9FF4F8BB09A460F4605461C
:103ED000002606E025280BD052460D9990476D1C10
:103EE000761C28780028F5D10FB03046BDE8F08F59
:103EF0000024A0460122604900E0044315F8013F78
:103F0000203B02FA03F00842F7D128782E2817D177
:103F100015F8010F44F004042A280ED06FF02F0288
:103F20002878A0F1300109290AD808EB880102EBB2
:103F3000410100EB01086D1CF2E757F8048B6D1C82
:103F4000287869283ED006DC0028CDD063280BD025
:103F5000642804D136E0732810D075284BD052461F
:103F60000D999047761C85E017F8040B8DF800003A
:103F700000208DF80100E946012003E057F8049B7A
:103F80004FF0FF3061074FF0000401D40AE0641CD9
:103F900044450DDA8442FADB19F804100029F6D101
:103FA00006E0641C8442FCDB19F804100029F8D1F7
:103FB000264404E019F8010B52460D999047641EFF
:103FC000F8D257E001CF4FF00A0B002802DA404246
:103FD0002D2102E0210504D52B218DF8241001218B
:103FE00003E0E10705D02021F7E70DF12009089152
:103FF0000CE00021F9E701CF4FF00A0BF9E7594631
:10400000FCF75BF901F1300209F8012D0028F6D127
:10401000ADEB090000F1200B600701D44FF001085F
:10402000D84502DDA8EB0B0000E00020804600240C
:1040300006E009A85246005D0D999047641C761C65
:1040400008988442F5DB04E0302052460D999047F1
:10405000761CB8F10001A8F10108F5DC05E019F8BB
:10406000010B52460D999047761CBBF10001ABF154
:10407000010BF4DC6D1C34E7092801000A68531CAD
:104080000B6010707047000010B504460020E0700F
:10409000401EE062204601F0E4F808B1042010BDA3
:1040A00004F22E2001F044F8A0F52A41553901D040
:1040B000032010BD94F83000E92805D0EB2814D176
:1040C00094F83200902810D104F1660001F025F830
:1040D0000749B1EB002F06D004F1820001F01DF872
:1040E0000449884201D1002010BD022010BD00000B
:1040F0000046415446415433F0B50022144E154653
:1041000006EB02131C685CB10768BC4209D15C680D
:104110008768BC4205D19B684469A34204D000E093
:104120000125521C022AEBD3022A01D069B904E00E
:104130004DB9022907D01220F0BD06EB021080898C
:10414000B0F5807F01D00020F0BD1020F0BD000050
:10415000D407002030B50021054B0C4603EB0112BB
:104160001568854200D11460491C0229F6D330BD80
:10417000D40700200368C26A480A5989B0FBF1F0ED
:10418000121D02CA19B1884203D3401AF8E7002071
:1041900070471168084470474269891E921E8A421E
:1041A00001D800207047826A408901FB00207047D7
:1041B0002DE9F04105680F00804606D000F0DAFED8
:1041C000022809D20120BDE8F081EE6816B16869C5
:1041D000B04207D8012605E0411CF4D0696981424C
:1041E000F1D83E4634466869641CA04202D80224D5
:1041F000022E0AD32146404600F0BCFE38B1012809
:10420000E1D0411CDFD0B442EDD10020DBE74FF01C
:10421000FF3632462146284601F03CF830B957B106
:1042200022463946284601F035F820B101280FD042
:1042300001242046C7E7EC60D5E90401891E8842C5
:1042400001D8401E2861287940F001002871F0E76C
:104250003446EEE72DE9F0410E4624300D68044661
:104260000B22202100F0F7FF002001464FF0080C40
:104270002A5C401C202A13D92F2A0CD05C2A0AD091
:104280002E2A01D0614516D3BCF10B0F20D02E2A67
:104290001ED10CE0401C2B5C2F2BFBD05C2BF9D0EB
:1042A00028443060A1B12078E5281DD01EE0082107
:1042B0004FF00B0CDCE7802A03D3104B1A4412F8A2
:1042C000802C0FA300E05B1C1F7827B19742FAD126
:1042D0000620BDE8F081A2F16103192B01D8203A34
:1042E000D2B26254491CC3E705202070202A01D8AD
:1042F000042000E00020E0720020EAE77855000882
:10430000222A2B2C3A3B3C3D3E3F5B5D7C7F0000EC
:10431000401E022812D20A4901EB00118889B0F52B
:10432000807F05D008B1401E80B2888110B103E0C3
:104330000020FAE700200860002070470220704744
:10434000D40700202DE9F04105460021066800F061
:10435000DDF800281DD13046E96900F082FF002811
:1043600017D1296A0A789AB1CA7A02F03F02AA7173
:10437000CA7A120711D405F124040B2211F8013B6B
:1043800014F8017BDB1B521E05D0002BF6D004E095
:104390000420BDE8F081002BFBD00021284600F06E
:1043A00003F80028D7D0F4E72DE9F0470546046864
:1043B0004069894600F12008E86910B1B8F5001F8E
:1043C00002D30420BDE8F0875FEAC8515AD1401CEF
:1043D000E861A969002729B16089401E10EA582FB9
:1043E00005D04FE02189B1EB581F1DD94AE028467E
:1043F00000F0C0FD064601281AD9701C30D0606953
:10440000B04239D8B9F1000F0ED02846A969FFF79C
:10441000CFFE06000AD0012E0AD0701C20D0204604
:1044200001F04CF8E0B905E0EF61CAE70720C9E701
:104430000220C7E74FF40072002104F1300000F0C1
:104440000AFF002731462046FFF7A6FE4FF001097C
:10445000E0620BE084F80390204601F02FF808B1E9
:104460000120AFE7E06A401C7F1CE0626089B8422F
:10447000F0D8E06AC01BE06231462046AE61FFF72B
:104480008BFEE861C8F3080020443030C5F8148082
:104490002862002096E72DE9F0410546012600211B
:1044A000076800F033F888B900243846E96900F05D
:1044B000D8FE58B9296A0978E5290AD049B10024FB
:1044C00001212846FFF770FF0028EED0042804D011
:1044D00004E0641CB44201D0F2E70720040012D1CA
:1044E0003846E96900F0BDFE04000CD1202200210D
:1044F000286A00F0B0FE0B2205F12401286A00F0C2
:10450000A1FE0120F8702046BDE8F0812DE9F041C0
:1045100007680D460646B1F5001F36D2E80634D1CD
:104520007561B46824B93878032805D37C6A1CB156
:1045300078894FEA402812E03889B0EB551F24D91A
:10454000786A12E0304600F015FD0446401C1AD08F
:10455000022C1AD37869A04217D9A5EB0805454566
:104560002146EFD23846FFF717FEC6E9064060B194
:1045700000EB5520F061C5F308003844303030625C
:104580000020BDE8F0810120FBE70220F9E70000F0
:10459000084A10B5135C002153B9012111541118B8
:1045A00002EB8000097A406802680846904701469D
:1045B000084610BDF407002030B4054B1C1803EB6F
:1045C0008000247A40680369204630BC1847000008
:1045D000F407002030B4054C251804EB80002D7A38
:1045E000406884682846A44630BC6047F407002031
:1045F00004490A1801EB8000127A406841681046AD
:1046000008470000F407002030B4054C251804EBDF
:1046100080002D7A4068C4682846A44630BC6047B4
:10462000F407002038B5044600F03EFA00280CD10B
:104630006946204600F06BFF002806D12069FFF78D
:1046400067FE002801D10021216038BD2DE9FC5F03
:104650000D460446694600F05AFF5FEA00095CD146
:1046600094F815905FEA0900F9D1E66A4FF0010A63
:1046700004F13008002E63D0681C29D0E068A842FD
:1046800000D20546A561002D47D02046691EFFF7E0
:1046900071FD0146E0610098FFF77EFD00287BD0A8
:1046A00000996D1E4A89521E02EA55221518208B68
:1046B000C005E9D0226AAA42E6D0207D000634D5A2
:1046C000487801234146FFF79FFF002873D128E077
:1046D00056F804BBA1680227C9B10025BF1C01918F
:1046E000884620466D1C00F045FC0146012853D940
:1046F000481C60D008F101008142F1D05F4502D82A
:1047000020C6019801C6009840698842E5D8E06A51
:104710005F45076002D80020306094E04FF0110937
:1047200091E0207D00F07F002075009801232A464B
:1047300040784146FFF74EFF00287FD1256282E096
:10474000E068A84203D2217D890700D405460027EE
:10475000A069A761FDB1009949894E0268B1691E3F
:10476000401EB1FBF6F1B0FBF6F2914205D3711E8B
:104770008843A0612D1AE1690CE0A16849B90021C4
:104780002046FFF715FD0146012847D0481C55D0AB
:10479000A160E161E1B928E040E0A069AD1B3044CF
:1047A000A061207D8007204606D5FFF701FD0100AE
:1047B00005D100250EE041E000F0DCFB0146481C7D
:1047C0003CD001292AD900984069884226D9E16164
:1047D000B542E2D8A0692844A061E80505D0009858
:1047E000FFF7DAFCD0B100EB5527E168A0698842F9
:1047F00004D9E060217D41F040012175C00522D03F
:10480000226ABA421FD0207D00060FD500980123EE
:1048100041464078FFF7F8FE80B903E0022060755A
:10482000BDE8FC9F207D00F07F00207500980123EB
:104830003A4640784146FFF7CDFE18B184F815A0FE
:104840000120EDE727624846EAE700002DE9F7413D
:1048500081B0904602980090684600F0ECFB04009E
:1048600003D50B2004B0BDE8F0810D4E002756F8AB
:1048700024501DB12846FFF76DFC2F7001980028C9
:1048800000D0077046F8240002D0B8F1010F01D023
:104890000020E7E7002201A902A800F00BFAE1E7F7
:1048A0002C0000202DE9F7438EB005000BD002F05C
:1048B0003F06324601A90FA800F0FCF904004FF0B2
:1048C000000804D0E9E0092011B0BDE8F0830198A8
:1048D000029002A80F9900F013FB04000ED19DF87E
:1048E0003700000601D5062408E0700801D0012138
:1048F00000E0002102A8FFF7FFFB044616F01C0FA2
:104900005DD0C4B1042C12D10020664902E0401CE5
:10491000022804D201EB00121268002AF7D1022803
:1049200004D002A8FFF7B7FD044600E0122446F0C9
:1049300008065CB1B1E09DF80E0010F0110F01D037
:104940000724AAE0700701D50824A6E0300745D562
:1049500000F06FFB07460A9839460E3000F05DFD07
:104960000A983946163000F058FD0A992020C8727E
:104970000A99019800F0BEFB074600220A990198A7
:1049800000F037FD0A9800211C3000F046FD019828
:104990000121C17007B3D0F82C900022394602A83B
:1049A00000F0EDFC040078D14946019800F059FC74
:1049B00004000198A7F10107C7600BD06DE0ECBBC4
:1049C0009DF80E00C10601D5042466E0B10701D5AB
:1049D000C007B5D1300701D546F040060198C06A3E
:1049E00068620A98A862700801D0012100E00021E5
:1049F00002A800F03FFB286158B30A99019800F023
:104A000079FBA8600A981C3000F087FBC5F82C8061
:104A1000E86001992960019905F130004FF40072B6
:104A2000C988A9802E7585F81580C5F820800021D9
:104A30008146C5F8188000F00EFC00E02DE0B006BD
:104A40002DD5EE685EB3AE610198A9684089470232
:104A50000DE0022421E0284600F08CFA01460128EE
:104A600000D80224481C00D10124F61B0CB9BE4218
:104A7000F1D8E9618CB9F00511D00198FFF78CFBF2
:104A80000028E6D000EB56222A620198012349460D
:104A90004078FFF79FFD10B10124C5F80080204643
:104AA00012E70000D4070020F8B50446694600F07C
:104AB0002EFD00280ED1217D4A060BD508060ED505
:104AC0000098226A0123407804F13001FFF79CFD31
:104AD00008B10120F8BD207D00F07F00207500F0B6
:104AE000A8FA0646616A009800F0BBFB0028F1D1E5
:104AF000A56A2946E87A40F02000E872A26820689A
:104B000000F077FC05F11C00E16800F086FC3146FE
:104B100005F1160000F081FC002105F1120000F003
:104B200084FC00980121C17000F084FC217D01F01B
:104B3000BF012175F8BD2DE9FC5F89460021196090
:104B40009A4616460446694600F0E1FC002806D164
:104B5000607D002803D1207D800702D40720BDE8B6
:104B6000FC9FA06904F1300182194FF0010B019103
:104B7000824200D2C64393E0A169C8056FD1009874
:104B80004089401E10EA512518D129B1E06A38B198
:104B90002046FFF7EFFA07E0A06838B9002100E0EF
:104BA000E1692046FFF704FB00287CD001282BD0C8
:104BB000411C4ED0E061A16801B9A060207D0006D3
:104BC0000BD50098226A012340780199FFF71CFD5C
:104BD00078BB207D00F07F002075E1690098FFF729
:104BE000DBFA88B100EB0508770A23D00098EA19B0
:104BF00041898A4200D94F1B40783B46424649468C
:104C0000FFF702FDA8B902E002206075A7E7216A5C
:104C1000A1EB0800B8420AD209EB40214FF4007220
:104C2000019800F00FFB207D00F07F0020757D02D1
:104C300027E00EE0216A41450FD0E168A069884273
:104C40000BD200980123424640780199FFF7C2FC3D
:104C500018B184F815B0012081E7C4F82080208BBA
:104C6000C0F30800C0F50075B54200D935462044B0
:104C70002A464946303000F0E5FA207D40F08000B9
:104C80002075A069A9442844A061E168884200D841
:104C90000846E060DAF800004119761BCAF80010F7
:104CA000002E7FF469AF207D40F040002075002089
:104CB00055E700002DE9FF41002790460E460F60A2
:104CC00000F0B9F9050003D50B2004B0BDE8F08170
:104CD000884850F825409CB13460207808F0FE06E2
:104CE00020B16078FFF784FCC1070BD02770E8B2D1
:104CF000B8466070FFF74CFCC10708D00320E4E71A
:104D00000C20E2E70EB1400704D40020DDE71EB11D
:104D1000400701D50A20D8E7002529462046FFF79D
:104D2000B3F9022820D16E4604EB051090F8F21179
:104D300000F5F77019B1083000F0EFF900E000203D
:104D400046F825006D1C042DEED3002756F8275099
:104D500025B129462046FFF797F900E003200228F5
:104D600002D37F1C042FF1D3042809D002286CD26F
:104D700004F13B0000F0DCF9B0F5007F65D101E003
:104D80000120A2E704F1460000F0D2F918B904F1BD
:104D9000540000F0C2F9A06194F84070A770012F90
:104DA00001D0022F51D1474394F83D006081E8B310
:104DB000411E084249D104F1410000F0B9F92081B7
:104DC000000742D104F1430000F0B2F9060004D11B
:104DD00004F1500000F0A1F9064604F13E0000F095
:104DE000A7F9010031D02389C81900EB13129642AC
:104DF0002BD3B01A6689B0FBF6F0B8B103264FF694
:104E0000F57C604500D8022640F6F57C604500D868
:104E10000126801C2A44A26229446061C4E907512A
:104E2000032E14D013B13944616200E00DE0022E6C
:104E30001ED000F0010100EB400001EB5000A16921
:104E400000F2FF10B1EB502F14D20D203DE704F11A
:104E50005A0000F06DF90028F7D120890028F4D11C
:104E600004F15C0000F059F9606260698000E6E7D7
:104E70004000E4E74FF0FF302061E06080202071C7
:104E8000032E2CD104F1600000F052F9012826D144
:104E9000691C204600F0E5F908BB84F8048004F2A0
:104EA0002E2000F045F9A0F52A41553917D104F11B
:104EB000300000F032F91049884210D104F5057035
:104EC00000F02BF90D49884209D104F5067000F075
:104ED00024F9206104F5077000F01FF9E06005492E
:104EE0002670091F0888401C0880E0802046FFF7D4
:104EF00031F90AE72C00002052526141727241617F
:104F000073B504460568019801E0401C01900178E2
:104F10002F29FAD05C29F8D00021A16001980078EF
:104F2000202806D2802084F82F002046FFF7EEFAD2
:104F30007CBD01A92046FFF78DF90028F8D1204655
:104F4000FFF700FA94F82F1028B10428F0D1490790
:104F5000EED405207CBD4907FCD4A079C006F8D565
:104F6000A08AC0F3080041192846303100F0C2F889
:104F7000A060DEE72DE9F04104680D4602290BD35D
:104F80006069A84208D920784FF0FF36012807D081
:104F900002282BD0032839D001263046BDE8F08105
:104FA000206A05EB550700EB5721204600F059F920
:104FB0000028F2D1C7F3080020447F1C90F830800D
:104FC000206A00EB5721204600F04BF90028E4D17D
:104FD000C7F30800204490F8301048EA0120E907A0
:104FE00001D00609D9E7C0F30B06D6E7206A00EB2B
:104FF0001521204600F035F90028CED1E8B204EBA7
:105000004000303000F094F80646C6E7206A00EB16
:10501000D511204600F025F90028BED140F2FF103E
:1050200000EA85002044303000F077F820F0704628
:10503000B3E70020704710B503464FF0FF301C68FF
:10504000002C13D0214600E0491C0A78212A0ED3F7
:105050003A2AF9D114F8012B303A0A2A06D28C42A6
:1050600004D1002A02D1491C1046196010BD00204D
:1050700010BD0000F0B502461D4D1468002005EB80
:1050800000131E68A64207D15E689768BE4203D12E
:105090009B685669B34202D0401C0228EFD3022815
:1050A00014D1002002E0401C022804D205EB0013BA
:1050B0001B68002BF7D102280ED005EB00131C60F3
:1050C00094685C6052699A6000229A81002905EB1D
:1050D0000011898905D009B10020F0BD4FF480711D
:1050E00000E0491C05EB0012401C9181F0BD00005E
:1050F000D407002070B506460D4601F11A0000F0F5
:1051000017F804463078032805D105F1140000F0A3
:105110000FF844EA0044204670BDC178827842EA24
:1051200001214278007842EA012140EA01207047DB
:105130004178007840EA01207047000008B5FCF78C
:1051400021F8FEF7F3FAFDF76DFC354800240168FD
:1051500041F4001101600068224600F40010009044
:1051600005211120FCF770F81120FCF75FF8FDF71E
:1051700031FC2D482B49C0E900148460C460022131
:105180000461C0E9054100F5A270284901604FF4AF
:10519000E131C0E901140C21C460C0E9044184611B
:1051A000C461FDF759FAFDF72FFCFDF78BFCFDF705
:1051B000DFFCFDF7B3FC1C488430FDF70FF801223B
:1051C0001B491C48FDF7D4FA1B481CA180F86B440E
:1051D00000F26440FBF768F8154C641F207828B192
:1051E00001280DD0022804D0032811D0FDF7E0FBE0
:1051F000F4E70F4A1048121F911CA838FDF71AFD5A
:105200000B4A0C48121F511C7C30FDF713FDE5E7DB
:10521000074A0949521EA8390748FDF7D5FCEFE7B0
:1052200030380240002C014058000020004400406B
:105230000D0000209C010020FC020020312E54585B
:1052400054000000002A05D011F8013B00F8013B92
:10525000521EF9D17047C9B200F8011B521EFBD192
:10526000704770B50446C06A0E460025B0420FD0A4
:10527000204600F023F905000AD160780123324668
:1052800004F13001FFF7A6F908B16E1E0125E662B0
:10529000284670BD2DE9F047022617460D46044604
:1052A000022969D36069A84266D920784FF00109C4
:1052B000012804D0022836D003285DD143E0216ABA
:1052C00005EB550801EB58212046FFF7CAFF060001
:1052D00052D1C8F308002044303008F10108E90732
:1052E00004D00178FAB262F31F1100E03946017070
:1052F00084F80390216A204601EB5821FFF7B1FFA3
:10530000060039D1C8F3080020443030E90702D044
:10531000C7F3071105E00178C7F3032201F0F0019C
:105320001143017026E0206A00EB15212046FFF7AB
:1053300098FF060020D1E8B204EB4000B9B230304B
:1053400000F073F816E0206A00EBD5112046FFF755
:1053500088FF060010D140F2FF1000EA85002044CB
:1053600030300546FFF7D9FE67F31B00014628469B
:1053700000F053F884F803903046BDE8F0872DE93B
:10538000F041046813460E46074602292DD3606992
:10539000B0422AD93BB14FF0FF3219462046FFF701
:1053A00079FF00281FD131463846FFF7E3FD05009D
:1053B00018D0012D19D0681C19D000223146204682
:1053C000FFF768FF00280ED1D4E90410821E914235
:1053D00005D2491C2161217941F0010121712E463C
:1053E000B042E0D80020BDE8F0810220FBE70120B8
:1053F000F9E770B50C460646154691B204F11A005D
:1054000000F013F83078032806D1290C04F11400B9
:10541000BDE8704000F009B870BD0170090A417024
:10542000090A8170090AC17070470170090A417048
:105430007047000070B5044600F040F8050036D112
:10544000207803282CD12079012829D1420204F1A7
:10545000300000210646FFF7FEFE4AF6552104F211
:105460002E20FFF7E2FF13493046FFF7D6FF12491F
:1054700004F50570FFF7D1FF04F506702169FFF709
:10548000CCFF04F50770E168FFF7C7FFE26901236D
:10549000521CE26260783146FFF7B6F800202071B6
:1054A000002260781146FFF787F800B101252846F1
:1054B00070BD000052526141727241612DE9F041AC
:1054C0000446C0780027F8B1E66A04F1300160783C
:1054D000012332468846FFF797F808B1012713E009
:1054E0000020E070206AA169301A88420CD2A578A9
:1054F00008E0A06901230644607832464146FFF780
:1055000083F86D1E022DF4D23846BDE8F08170B5E7
:105510000E4604004FF009050CD0206850B1017808
:1055200041B1A188C288914204D14078FFF760F868
:10553000C00703D000203060284670BD00252068D9
:10554000F9E70000C93500085D3600083936000863
:1055500061360008E935000800061016000610162E
:105560000000000000000000010203040607080913
:1055700000000000010203044355454141414143FD
:1055800045454549494941414592924F4F4F5555EF
:10559000594F554F9C4F9E9F41494F55A5A5A6A7D2
:1055A000A8A9AAABACADAEAFB0B1B2B3B441414162
:1055B000B8B9BABBBCBDBEBFC0C1C2C3C4C54141FE
:1055C000C8C9CACBCCCDCECFD1D145454549494933
:1055D00049D9DADBDCDD49DF4FE14F4F4F4FE6E8D9
:1055E000E85555555959EEEFF0F1F2F3F4F5F6F7A9
:1055F000F8F9FAFBFCFDFEFF01000400100040007A
:105600000001000200000100020004000800100078
:105610002000000034560008000000203000000088
:10562000A43E00086456000830000020D047000067
:10563000B43E0008FFFFFF00010000000001000071
:105640000000000001000000000000000100000058
:1056500010000000000000000024F4000000000022
:045660000000000046
:04000005080001C529
:00000001FF
