:020000040800F2
:1000000008600020D90100081B370008C73300082A
:1000100019370008810A0008BD4D000800000000E3
:10002000000000000000000000000000DD450008A6
:10003000430C0008000000004D370008DF450008B1
:10004000F3010008F3010008F3010008F3010008C0
:10005000F3010008F3010008F3010008F3010008B0
:10006000F3010008F3010008F3010008F3010008A0
:10007000F3010008F3010008F3010008F301000890
:10008000F3010008690B0008F3010008F301000800
:10009000850A0008F3010008F3010008F3010008D5
:1000A000F3010008E9460008F3010008F301000825
:1000B000F546000801470008F3010008F3010008B5
:1000C000F3010008F3010008F3010008F301000840
:1000D000F3010008F3010008994D0008F30100083E
:1000E000F3010008F3010008F3010008F301000820
:1000F000F3010008F3010008F3010008F301000810
:1001000000000000F3010008F3010008F3010008FB
:100110000000000000000000F3010008F3010008E7
:10012000F3010008F3010008F3010008F3010008DF
:10013000F3010008F3010008F3010008F3010008CF
:10014000F3010008F3010008F3010008F3010008BF
:10015000F3010008F3010008F3010008F3010008AF
:10016000F3010008F3010008000000000000000097
:10017000000000000000000000000000000000007F
:10018000F3010008F3010008000000000000000077
:10019000F3010008F3010008000000000000000067
:1001A000000000000000000000000000000000004F
:1001B000F30100080000000000000000F301000847
:1001C000F3010008DFF80CD000F006FA0048004701
:1001D00085620008086000200648804706480047FE
:1001E000FEE7FEE7FEE7FEE7FEE7FEE7FEE7FEE7E7
:1001F000FEE7FEE795460008C50100082DE9F05F1F
:100200000546002092469B46884606468146402485
:100210001BE0284641464746224600F038F953463F
:100220005A46C01A914110D311461846224600F092
:100230001FF92D1A67EB01084F46224601200021C5
:1002400000F016F917EB00094E41201EA4F101043D
:10025000DFDC484631462A464346BDE8F09FD2B22D
:1002600001E000F8012B491EFBD270470022F6E79F
:1002700010B513460A4604461946FFF7F0FF20461C
:1002800010BD421E12F8013F002BFBD111F8013BBB
:1002900002F8013B002BF9D17047421C10F8011BFA
:1002A0000029FBD1801A7047034611F8012B00F892
:1002B000012B002AF9D1184670472DE9FE4F81EA3B
:1002C000030404F0004421F0004100944FF0000BBF
:1002D00023F0004350EA01045ED052EA03045BD0ED
:1002E000C3F30A54C1F30A552C44A4F2F334019425
:1002F000A0FB0254C1F3130141F48011C3F31303B3
:1003000043F4801301FB024400FB034E840A970A66
:1003100044EA815447EA8357A4FB076802958D0A93
:1003200005FB07854FEA932C04FB0C542705029D1F
:100330004FEA065847EA1637B5EB08056EEB070C8F
:10034000870E920E47EA811742EA8312A7FB020149
:10035000B6EB0B0164EB00042B0D43EA0C335E1883
:1003600044EB1C50DA465146E7FB0201C5F3130487
:100370004FEA0B3343EA14534FEA0432019C43EA39
:100380000603A4F10C040294009CCDE900B400F033
:10039000D4F803B0BDE8F08F00200146F9E70EB5B0
:1003A000C10F80EAE0700844CA07002140F23343DD
:1003B0008DE80E000A460B4600F0BFF803B000BD02
:1003C0000EB540F2334102910021CDE900110A46F9
:1003D0000B4600F0B2F803B000BDC1F30A5210B5ED
:1003E000C1F3130140F2FF3341F480119A4201DA64
:1003F000002010BD40F233439A42A2F2334203DCA4
:10040000524200F044F810BD904010BD01F000438E
:1004100030B421F0004150EA010206D00A0DA2F5E5
:100420006072C1F31301002A02DC30BC0020704767
:10043000440F44EAC104C100E01830BC00EBC250D4
:1004400000F035B830B50B460146002020220124CB
:1004500009E021FA02F59D4205D303FA02F5491B92
:1004600004FA02F52844151EA2F10102F1DC30BDA8
:10047000202A04DB203A00FA02F100207047914064
:10048000C2F1200320FA03F3194390407047202A59
:1004900004DB203A21FA02F00021704721FA02F32E
:1004A000D040C2F12002914008431946704700290C
:1004B000A8BF7047401C490008BF20F001007047EA
:1004C00010B4B0FA80FC00FA0CF050EA010404BF4A
:1004D00010BC704749B1CCF1200421FA04F411FAA0
:1004E0000CF118BF012121430843A3EB0C01CB1DE4
:1004F0004FEA00614FEA102042BF002010BC704755
:1005000000EBC35010440029A4BF10BC7047401C2E
:10051000490008BF20F0010010BC704710B5141E40
:1005200073F1000408DA401C41F1000192185B41AC
:100530001A4301D120F0010010BD2DE9F04D924683
:100540009B4611B1B1FA81F202E0B0FA80F220329A
:100550009046FFF78DFF04460F4640EA0A0041EA45
:100560000B0153465A46084313D0114653EA010083
:1005700019D0C8F140025046FFF789FF05460E46E4
:10058000504659464246FFF773FF084305D0012005
:1005900004E020463946BDE8F08D0020054346EAD8
:1005A000E0762C4337430A986305E40AA0EB080081
:1005B0000022FD0A44EA47540A3002D500200146D1
:1005C000E9E7010510196941DDE9084500196941AC
:1005D000BDE8F04DA2E70000064C074D06E0E068DC
:1005E00040F0010394E8070098471034AC42F6D37A
:1005F000FFF7ECFD2C6800084C680008F0B587B0E8
:1006000007460C461646FF250095019522782B4695
:100610002BA103A804F0D4FB03A93846FFF744FE3E
:10062000009501956288FF2329A103A804F0C8FB67
:1006300003A93846FFF725FE00950195A27AFF230E
:1006400027A103A804F0BCFB03A93846FFF719FE55
:1006500000950195627AFF2325A103A804F0B0FB61
:1006600003A93846FFF70DFE00950195227AFF2376
:1006700023A103A804F0A4FB03A93846FFF701FE59
:1006800094F82C102248234D012721B1216B032916
:1006900001D2297871B1216B032905D300220221EF
:1006A00001F04AF900202870206B401C206337704D
:1006B00007B0F0BD0122022101F03EF92F70F3E7EF
:1006C0006E312E76616C3D256425632563256300BC
:1006D0006E322E76616C3D256425632563256300AB
:1006E0006E342E76616C3D25642563256325630099
:1006F0006E352E76616C3D25642563256325630088
:100700006A302E76616C3D25642563256325630080
:1007100000000240000000202DE9F04186B0804634
:100720000C4617461E46FF250095019562882B460C
:1007300047A102A804F044FB02A94046FFF7B4FD1C
:1007400000950195A27AFF2345A102A804F038FB89
:1007500002A94046FFF795FD00950195627AFF23B7
:1007600043A102A804F02CFB02A94046FFF789FD33
:1007700000950195E27AFF2341A102A804F020FB35
:1007800002A94046FFF77DFD00950195627EFF239B
:100790003FA102A804F014FB02A94046FFF771FD37
:1007A00000950195A27EFF233DA102A804F008FB5D
:1007B00002A94046FFF765FD00950195E27EFF2303
:1007C0003CA102A804F0FCFA02A94046FFF759FD3B
:1007D00000950195227FFF233BA102A804F0F0FAC7
:1007E00002A94046FFF74DFD00950195627FFF236A
:1007F0003AA102A804F0E4FA02A94046FFF741FD3D
:1008000000950195B4F91620FF2339A102A804F040
:10081000D7FA02A94046FFF734FD3A4A50680C283F
:100820000ED100200025355431180D740D7681F855
:100830002850401C0828F6DB6572A572E5725560E9
:100840005068401C50600120387006B0BDE8F0814F
:100850006E322E76616C3D25642563256325630029
:100860006E342E76616C3D25642563256325630017
:100870006E362E76616C3D25642563256325630005
:100880006E382E76616C3D256425632563256300F3
:100890006E392E76616C3D256425632563256300E2
:1008A0006E31302E76616C3D2564256325632563AA
:1008B000000000006E31312E76616C3D25642563A9
:1008C00025632563000000006E31322E76616C3D99
:1008D0002564256325632563000000006E31332EF7
:1008E00076616C3D25642563256325630000000067
:1008F0006E31342E76616C3D256425632563256356
:10090000000000000000002070B5B0B0054614469D
:10091000B1F92A00B1F92820B1F92630B1F92460E3
:10092000CDE90E63CDE91020B1F92220B1F9200004
:10093000CB7E8E7ECDE90A63CDE90C02487EB1F90B
:100940001420B1F91630B1F91260CDE90663CDE992
:100950000820B1F91030B1F90E20B1F90C60487AD5
:10096000CDE9036305920290C87A8A7ACDE9002026
:100970004B880A7809A112A804F022FA12A9284685
:10098000FFF77FFC15498868401C88601C2803D14C
:10099000012020700020886030B070BD25643B25A8
:1009A000643B25643B25643B25643B25643B25640F
:1009B0003B25643B25643B25643B25643B25643B28
:1009C00025643B25643B25643B25643B25643B252E
:1009D000643B25643B25640D0A00000000000020F4
:1009E0000146014801F090BD6C00002010B504489C
:1009F00001F09CFD042801D0012010BD002010BD95
:100A00006C00002010B500F015F8012801D001207D
:100A100010BD074801F09AFD044634B94FF4006157
:100A2000034801F031FC00B10124204610BD000054
:100A30006C00002008B5012000909DF8000008BD62
:100A400038B50024009313460A460146034801F0D6
:100A500045FE00B10124204638BD00006C00002096
:100A600038B50024009313460A460146034801F0B6
:100A70002EFF00B10124204638BD00006C0000208C
:100A8000FEE70000014800F016BA00004400002014
:100A900000B58BB0012006900990002105914FF41C
:100AA000E24201924FF4314202924FF460420392CB
:100AB0004FF4404204920790089101A9024800F0C7
:100AC00071F90BB000BD00004400002000B58BB0F0
:100AD0000220069001210991002005904FF4424226
:100AE00001924FF4444202924FF4464203924FF473
:100AF000484204920791089001A9024800F052F977
:100B00000BB000BD4400002016490A68D2F8B82195
:100B100002700A68D2F8B821120A42700A68D2F844
:100B2000B821120C82700A68D2F8B821120EC27075
:100B30000A68D2F8BC2102710A68D2F8BC21120AF4
:100B400042710A68D2F8BC21120C82710A68D2F88C
:100B5000BC21120EC2710868C16841F02001C16059
:100B60007047000044000020014800F07FBC0000F6
:100B7000781F00200168CAB2103A1823B2FBF3F2C2
:100B8000064B9B5CC3656FF30901032A02D9091D5B
:100B9000816500E08165806D704700007067000826
:100BA00010B5014600208A6A8B694FF0C074002B93
:100BB0000ED0B3F5005F1AD062B3012A2AD0022A00
:100BC00028D0032A03D1C96AC90100D5012010BD6C
:100BD0001AB1012A06D0022AF9D1C96AC901F6D58B
:100BE000012010BDC96AA142FBD1012010BD52B144
:100BF000012A0AD0022A06D0032AF7D1C96AA142E3
:100C0000F4D1012010BD012010BDC96AC901FBD576
:100C1000012010BD012010BD30B50468256825F401
:100C200080252560046863608368402B04D00368D6
:100C300099600068C26030BD03689A600068C16056
:100C400030BD704770470022AFF3008030B50446D6
:100C500001200D4B5D7A002D14D1587A1D54587A1D
:100C600003EB800044605C7A03F108002254587A58
:100C7000421C5A72303008703A2048702F20887019
:100C8000CD70002030BD0000F81F002090F820201B
:100C9000012A07D0022A05D0416A41F4802141622D
:100CA00001207047006842690A4342610020704792
:100CB000F0B590F820500468A468012D07D0022DEB
:100CC00005D0416A41F4802141620120F0BD04F069
:100CD000806504F00066354301D1E5005BD5C4F3BF
:100CE0000164022C05D9416A41F4000141620120EE
:100CF000F0BD0125A5401D608B684FF4C0759BB108
:100D0000CE6805EB041733434E6843EAC603066812
:100D1000F3514FF4C273076803EB04130E69FE50DE
:100D2000097D012909D00DE00E88CB6805EB041779
:100D300043EA46530668F351EBE70168CE5846F4A0
:100D40008076CE501179D379567941EA036193794F
:100D50001B0443EA062319434FF4C676036806EBE7
:100D6000041699511178D37841EA03619378527847
:100D70001B0443EA022211434FF4C473026803EBDD
:100D80000413D150006805EB0411425842F00102EF
:100D900042500020F0BD416A41F40011416201203F
:100DA000F0BD000010B590F82020012A07D0022ADB
:100DB00005D0416A41F480214162012010BD3C48C8
:100DC00000F50070026842F001020260026822F43D
:100DD0007C52026002684B6A42EA032202600A7D8A
:100DE00002F01F0301229A40C3699343C361A0F537
:100DF0000070CB69B3B9D0F80C329343C0F80C3211
:100E00008C894B6864F31F434C6900EBC404C4F83D
:100E100040320C890B6864F31F434C6900EBC40437
:100E2000C4F84432CB69012B16D1D0F80C321343ED
:100E3000C0F80C320C884B6864F31F434C6900EB1C
:100E4000C404C4F840320C89CB6864F31F434C6976
:100E500000EBC404C4F844328B697BB1D0F804328F
:100E60001343C0F804320B6973B1D0F81432134342
:100E7000C0F81432096A01290CD010E0D0F804320D
:100E80009343C0F80432EEE7D0F814329343C0F82D
:100E90001432EFE7D0F81C121143C0F81C12D0F83E
:100EA000001221F00101C0F80012002010BD000066
:100EB0000064004070472DE9F05F05460024286873
:100EC0004669D0F804908768D0F80CA0D0F810B02C
:100ED000D0F81880F10748D0F90714D001218160BB
:100EE000B80703D5284600F061FA0CE0780702D570
:100EF0004FF4006407E0380702D54FF4805402E055
:100F0000284600F052FAF80516D529684FF480708B
:100F10008860B80503D5284600F04AFA0CE0780549
:100F200002D544F4005407E0380502D544F4804467
:100F300002E0284600F03BFAF80316D529684FF482
:100F400080308860B80303D5284600F033FA0CE0FF
:100F5000780302D544F4004407E0380302D544F492
:100F6000803402E0284600F024FA300707D55FEA13
:100F7000CA6004D544F4007429681020C860700762
:100F80004FF0080707D55FEA0A7004D52868C760E4
:100F9000284600F075F9B00706D52868C0688007B4
:100FA00002D0284600F06EF9700607D55FEACB60E4
:100FB00004D544F48064296810200861B00607D580
:100FC0005FEA0B7004D528680761284600F0BEF977
:100FD000F00606D528680069800702D0284600F090
:100FE000B6F9B00308D55FEAC96005D529681020B5
:100FF0004860284600F0ACF9F00307D55FEA0970B5
:1010000004D528684760284600F0D5F9300446D555
:101010005FEA497040D5F00504D55FEAC87001D099
:1010200044F00104B00504D55FEA887001D544F0AE
:101030000204700504D55FEA487001D544F0040449
:10104000300529D518F0700F26D008F07000402820
:1010500015D006DC102809D020280AD0302816D157
:101060000AE050280ED0602811D10EE044F00804A8
:101070000DE044F010040AE044F0200407E044F0DE
:10108000400404E044F0800401E044F480742868E3
:10109000816921F070018161296804204860002C79
:1010A00005D0686A204368622846FFF703FFBDE861
:1010B000F09F70B50446002C03D094F8200010B1C6
:1010C00004E0012070BD204600F09CF82068016813
:1010D00021F00201016000F037FC054605260CE016
:1010E00000F032FC401B0A2807D9606A40F4003047
:1010F000606284F82060012070BD2068406880072D
:10110000EED42068016841F00101016000F01CFC90
:1011100005460CE000F018FC401B0A2807D9606A5D
:1011200040F40030606284F82060012070BD2068C7
:101130004068C007EED0207E01283FD020680168BB
:1011400021F080010160607E01283DD020680168A7
:1011500021F040010160A07E01283BD02068016899
:1011600021F020010160E07E012839D0206801686B
:1011700041F010010160207F012837D0206801680C
:1011800021F008010160607F012835D020680168E6
:1011900021F004010160D4E902010843D4E90412FA
:1011A000114308436168491E08432168C861002053
:1011B0006062012084F82000002070BD2068016872
:1011C00041F080010160BEE72068016841F0400104
:1011D0000160C0E72068016841F020010160C2E7BA
:1011E0002068016821F010010160C4E720680168EF
:1011F00041F008010160C6E72068016841F0040180
:101200000160C8E710B586B00446142101A8FFF7B5
:101210002DF818492068884229D100211648026813
:1012200042F000720260006800F000700090124806
:101230001038026842F002020260006800F002000A
:1012400000904FF44070019002200290039103201F
:1012500004900820059001A9084800F0A7FA002290
:101260000321142000F0E2FB142000F0D1FB06B0B3
:1012700010BD0000006400404038024000040240FD
:101280007047000010B50068D0F8B001400D2C4C3C
:10129000B0F5627F16D0B0F5B16F1AD0B0F5C06F5F
:1012A00035D0B0F5C26F38D0B0F5C46F3BD0B0F5D3
:1012B000C66F3ED0B0F5E06F0AD1BDE810402148BE
:1012C000FFF722BC1F483038FFF71EFC00202063C8
:1012D00010BD1C482838FFF717FC1A493039487AE6
:1012E000022806D011280FD01228F1D1087BA07255
:1012F00010BD087B497B00EB01206421B0FBF1F0BD
:1013000011490861607210BD087BE07210BD0D4884
:10131000BDE810402038FFF7F7BB0A48BDE8104091
:101320001838FFF7F1BB0748BDE810401038FFF749
:10133000EBBB0448BDE810400838FFF7E5BB0000F0
:10134000B01A0020200200201000002070477047D3
:10135000704770B5044694F82000012805D0606AF3
:1013600040F400206062012070BD022084F820005B
:101370002068016821F00101016000F0E5FA0546EE
:101380000DE000F0E1FA401B0A2808D9606A40F439
:1013900000306062052084F82000012070BD2068C4
:1013A0004068C007EDD1606270BD704770477047FC
:1013B00070477047704770472DE9F0410446A76DAC
:1013C00000F0C2FA054694F835000026022806D03F
:1013D0008020606584F834600120BDE8F0812068D9
:1013E000016821F0160101602068416921F0800147
:1013F0004161206C08B9A06C20B12068016821F01F
:10140000080101602068016821F0010101600BE022
:1014100000F09AFA401B052806D9202034342062B7
:10142000267003206070D8E720680068C007EFD1FD
:1014300034343F2094F828108840B860267001208A
:1014400060700020C9E790F83510022903D0802190
:10145000416501207047052180F83510006801685A
:1014600021F0010101600020704700002DE9F843E0
:1014700004464FF00009CDF800906F484FF4165124
:101480000068B0FBF1F7A56D2E6894F85C000822A7
:1014900002FA00F1314210D02068016849070CD5EA
:1014A000016821F00401016094F85C0002FA00F187
:1014B000A960606D40F00100606594F85C104FF029
:1014C000010808FA01F0304208D02168496909068C
:1014D00004D5A860606D40F00200606594F85C106F
:1014E00004208840304208D021680968890704D563
:1014F000A860606D40F00400606594F85C101020F6
:101500008840304220D02168096809071CD5A860AE
:101510002068016849030CD50068000304D4216CDD
:1015200091B1204688470FE0A16C69B120468847F9
:101530000AE00168C90503D4016821F008010160CF
:10154000216C09B12046884794F85C10202088401F
:1015500030424CD021680968C90648D5A86094F883
:10156000350005280BD020680168490330D5006894
:10157000000328D4616C51B32046884737E02068C7
:10158000016821F0160101602068416921F08001A5
:101590004161206C08B9A06C20B12068016821F07D
:1015A0000801016094F85C103F208840A86084F82E
:1015B000349084F83580216D00293BD001B020465D
:1015C000BDE8F0430847E16B09B1204688470EE0CB
:1015D0000168C90507D4016821F01001016084F891
:1015E000349084F83580E16B09B120468847606DFE
:1015F00000281FD0606DC00714D0052084F8350086
:101600002068016821F0010101600098401C0090F1
:10161000B84203D820680068C007F6D184F8349037
:1016200084F83580E16C002904D001B02046BDE883
:10163000F0430847BDE8F883380000202DE9F04169
:10164000044600F081F905465CB1002684F8346058
:10165000022084F835002068016821F00101016052
:101660000DE00120BDE8F08100F06EF9401B052877
:1016700005D920206065032084F83500F2E7206852
:101680000068C007F0D121680A6820480240D4E908
:1016900001031843D4E903352B4318436369184306
:1016A000A3691843E3691843236A18431043626A25
:1016B000042A03D1D4E90B231A431043086020689D
:1016C000406920F00700656A29460543012704297F
:1016D0000DD1A06A0543E06A48B12046FFF760FAE1
:1016E00028B14020606584F835700120BAE7206891
:1016F00045612046FFF73EFA94F85C203F21914077
:101700008160666584F835700020ABE73F8010F09B
:101710002DE9F04104460025A66D94F83400012817
:101720000DD0012084F8340094F835700020012F8A
:1017300007D084F8340002252846BDE8F081022055
:10174000FBE7022784F8357060652046FFF764FAEE
:1017500094F85C103F208840B0602068016841F038
:10176000160101602068416941F080014161206CEF
:1017700020B12068016841F008010160206801681B
:1017800041F001010160D7E770B5044600F0DCF8D4
:101790000546601C02D004480078044400F0D4F8E8
:1017A000401BA042FAD370BD2C0000202DE9F84F59
:1017B0000022DFF86891DFF8648109F108094FF031
:1017C000010E4FF00F0C09F1040A0EFA02F60B6835
:1017D0003340B34271D14C68022C01D0122C11D18C
:1017E000D40800EB84073D6A5407E40E0CFA04FBAE
:1017F00025EA0B05D1F810B00BFA04FB4BEA050BF8
:10180000C7F820B0076854000325A540AF4391F8FE
:1018100004B00BF0030B0BFA04FB4BEA070BC0F808
:1018200000B04F68012F05D0022F03D0112F01D037
:10183000122F11D18768AF43D1F80CB00BFA04FB1B
:101840004BEA070BC0F808B04768B7430E79C6F3F8
:10185000001696403E434660C668AE438D68A5407C
:101860003543C5604C68E40051D52D4C256845F4DE
:1018700080452560246804F480440094294C22F0BB
:1018800003052E19D6F808789407250F0CFA05F4ED
:10189000A743254CA04201D1002410E0234CA042D4
:1018A00001D101240BE0224CA04201D1022406E028
:1018B000204CA04202D1032401E028E00724AC40E0
:1018C0003C43C6F80848D8F800409C434D68ED03F7
:1018D00000D51C43C8F80040104D2D1D2C689C43BA
:1018E0004E68B60300D51C432C60D9F800409C43D9
:1018F0004D68ED0200D51C43C9F80040DAF80040FD
:101900009C434D68AD0200D51C43CAF80040521CF0
:10191000102AFFF45AAFBDE8F88F0000003C0140E8
:101920004438024000300140000002400004024000
:1019300000080240000C0240002A01D0816170477B
:101940000904816170470000014880687047000009
:101950002C000020024881680278114481607047A1
:101960002C00002010B50B48016841F400710160A3
:10197000016841F480610160016841F48071016097
:10198000032000F073F8002000F006F800F026F8BD
:10199000002010BD003C024070B504460D4D4FF4D0
:1019A0007A712878B1FBF0F00B490968B1FBF0F0CF
:1019B00001F070F808B1012070BD102C07D2002290
:1019C0002146501E00F032F86C60002070BD0120EE
:1019D00070BD00002C0000203800002082B00B48B1
:1019E000016841F480410160006800F4804001908A
:1019F0000648001F016841F080510160006800F056
:101A000080500190042002B000F030B84438024009
:101A1000002809DB00F01F020121914040098000ED
:101A200000F1E020C0F8001170470000F0B40D464E
:101A30000D4B1B68C3F30223C3F10704042C00D928
:101A40000424191D072901D2002300E0DB1E012612
:101A500006FA04F1491E294099409E40761E164020
:101A60003143F0BC03F0C0B90CED00E000F0070119
:101A7000054A10684FF6FF03184040EA0120034969
:101A800008431060704700000CED00E00000FA050C
:101A90002DE9F84F044600252078924FC00708D062
:101AA0003868616920F0C06008433860606900B937
:101AB00001252078800708D53868A16920F0C0503A
:101AC00008433860A06900B9012520784FF000066E
:101AD00000074FF0010963D582484C38016841F096
:101AE00080510160006800F080500090DFF8F8A19C
:101AF000DAF8000040F48070CAF80000FFF724FF15
:101B0000804608E0FFF720FFA0EB0800022802D97A
:101B10000320BDE8F88FDAF80000C005F2D5DFF841
:101B2000C4A1AAF11C0ADAF8000000F4407020B346
:101B3000A18B01F4407181421FD0DAF8000020F43B
:101B400040706A49C1F800900E60CAF80000DAF8E7
:101B50000000C00711D0FFF7F7FE804641F2883B36
:101B600007E0FFF7F1FEA0EB0800584501D903207C
:101B7000CFE7DAF800008007F3D5E0695949C0F3F0
:101B800001228439032A3CD0086820F4F810086048
:101B9000DAF80000A18BC1F30B010843CAF800007A
:101BA0002078DFF84CA1400703D594F83800CAF834
:101BB000E0012078C1064F4805D50168626A21F42A
:101BC00040011143016021784FF00068890609D572
:101BD0000168A26A21F0006111430160A16A4145D8
:101BE00000D101252178490605D50168226A21F036
:101BF000805111430160012D0BD02068802808D04E
:101C00005CE00A683C4B22F4F812184002430A6078
:101C1000BEE73A4DAE66FFF797FE8346314E8C3EE7
:101C200007E0FFF791FEA0EB0B00022801D903208B
:101C30006FE730680001F4D4606BCAF8D800206800
:101C40002F49C20701D062697AB1820701D5A26922
:101C50005AB1820602D5A26A424506D040060FD587
:101C6000206A68B9A06A40450AD1D4E9010240EA75
:101C70008210227B237C120642EA03721043086022
:101C8000207800060AD5D4E9010240EA8210227BBE
:101C9000237C120642EA037210430860C5F868907C
:101CA000FFF752FE054606E0FFF74EFE401B0228F6
:101CB00001D903202DE730680001F5D52088C00543
:101CC00005D53868E16A20F0004008433860208874
:101CD000800505D53868216B20F400400843386042
:101CE000002016E78C38024000700040400E47424A
:101CF0000010474294380240FFFCFF0F00004742AB
:101D0000843802402DE9F04704460D46002C13D0DC
:101D1000DFF82491D9F80000EFB200F00F00A842DC
:101D20000CD289F80070D9F8000000F00F00A8422A
:101D300004D00120BDE8F0870120FBE720683F4E7A
:101D4000810712D5400703D5306840F4E050306079
:101D50002078000703D5306840F460403060306878
:101D6000A16820F0F000084330602078C00731D02F
:101D7000324960680839012808D002280BD00328AE
:101D800009D0096889070BD40120D3E709688903C2
:101D900006D40120CEE70968890101D40120C9E7F2
:101DA000316821F0030101433160FFF7CDFD80462A
:101DB00041F2883A07E0FFF7C7FDA0EB0800504565
:101DC00001D90320B6E73068616800F00C00B0EB81
:101DD000810FF0D1D9F8000000F00F00A84209D916
:101DE00089F80070D9F8000000F00F00A84201D077
:101DF00001209FE72078400705D53068E16820F48E
:101E0000E050084330602078000706D5306821692B
:101E100020F4604040EAC100306000F03BF83168D7
:101E2000074AC1F30311515CC8400649086000200D
:101E3000FFF7B2FD00207DE7003C02400838024079
:101E400078670008380000200148006870470000EB
:101E50003800002000B5FFF7F7FF04490968044A7D
:101E6000C1F38221515CC84000BD00000838024027
:101E70008867000800B5FFF7E7FF04490968044ACE
:101E8000C1F34231515CC84000BD00000838024037
:101E90008867000810B51748006810F00C01164854
:101EA00016D04310042912D0082911D1114C241F37
:101EB000216801F03F02216849020AD52068C0F379
:101EC0008810A0FB03010023FEF798F909E01846EB
:101ED00010BD21680023C1F38811A1FB0001FEF7AA
:101EE0008DF92168C1F30141491C4900B0FBF1F0B3
:101EF00010BD0000083802400024F4002DE9F84F1E
:101F00000446DD4D2078C00753D0DB480830016817
:101F1000C1F38101012908D00068C0F381000228C3
:101F20000BD1281D0068400207D52868800340D5E2
:101F3000606878BB0120BDE8F88F6068B0F5803F2D
:101F400010D0B0F5A02F12D0286820F4803028607F
:101F5000286820F4802028606068E0B1FFF7F4FC76
:101F6000064614E0286840F480302860F4E72868CA
:101F700040F480202860286840F480302860EBE737
:101F8000FFF7E2FC801B642801D90320D3E728680F
:101F90008003F5D50DE0FFF7D7FC064606E0FFF716
:101FA000D3FC801B642801D90320C4E72868800380
:101FB000F5D42078B14F80074FF0000849D5AE48DE
:101FC0000830016811F00C0F09D00068C0F38100DF
:101FD000022814D1A848001D006840020FD42868C8
:101FE000800704D5E068012801D00120A3E7286814
:101FF000216920F0F80040EAC100286029E0E0688B
:10200000B8B101203860FFF79FFC064606E0FFF7F5
:102010009BFC801B022801D903208CE728688007DD
:10202000F5D52868216920F0F80040EAC100286051
:102030000FE0C7F80080FFF787FC064606E0FFF7D1
:1020400083FC801B022801D9032074E728688007DD
:10205000F5D42078000729D5DFF81C9288486169FB
:1020600009F1740989B101210160FFF76DFC064691
:1020700006E0FFF769FC801B022801D903205AE71C
:10208000D9F800008007F4D510E0C0F80080FFF711
:102090005BFC064606E0FFF757FC801B022801D9CF
:1020A000032048E7D9F800008007F4D420784007DF
:1020B00072D50026DFF8C0A10AF1400ADAF8000064
:1020C000C0000BD4DAF8000040F08050CAF80000DD
:1020D000DAF8000000F0805000900126DFF8A4B18B
:1020E000DBF80000C00515D4DBF8000040F4807078
:1020F000CBF80000FFF728FC814607E0FFF724FC3F
:10210000A0EB0900022801D9032014E7DBF8000046
:10211000C005F3D5DFF860B1A0680BF1700B0128A2
:1021200013D0052818D0DBF8000020F00100CBF810
:102130000000DBF8000020F00400CBF80000A068ED
:1021400030B3FFF701FC81461DE0DBF8000040F0F2
:102150000100CBF80000F2E7DBF8000040F00400DB
:10216000CBF80000DBF8000040F00100CBF80000E5
:10217000E5E7FFF7E9FBA0EB090141F28830814276
:1021800001D90320D7E6DBF800008007F1D512E083
:10219000FFF7DAFB81460AE015E0FFF7D5FBA0EB7D
:1021A000090141F28830814201D90320C3E6DBF8FE
:1021B00000008007F1D4012E05D1DAF8000020F0EC
:1021C0008050CAF80000A069D8B32B4908310968CB
:1021D000C1F3810102294CD0022805D0C7F86080E4
:1021E000FFF7B2FB04463FE0C7F86080FFF7ACFBA7
:1021F000064606E0FFF7A8FB801B022801D9032052
:1022000099E628688001F5D454F81C0F4FF0FF338D
:102210006168E2680843A16803EB5202890141EA60
:1022200002410843217C40EA0160217D40EA0171BE
:102230001148001D016001203866FFF785FB044648
:1022400007E014E0FFF780FB001B022801D9032000
:1022500071E628688001F5D509E0FFF775FB001BE2
:10226000022801D9032066E628688001F5D4002001
:1022700061E601205FE600000038024000004742AE
:10228000800E47420070004070B58AB004460D468B
:10229000032084F83400606C03281ED0B5F5805FFD
:1022A00008D0B5F5006F0AD085B1A06B40F0006092
:1022B000A06316E0A06B40F08050A06311E02046C0
:1022C00002F0CDF8A16B0143A1630AE0204602F0C1
:1022D0009DF8A16B0143A16303E0A06B40F0805027
:1022E000A063A06B012640B1216840F2FF508863D3
:1022F00084F8346001200AB070BD60680490A06862
:102300000590E0680690079560690890A0690990BB
:1023100007A807C88DE8070004A920680EC901F0C6
:102320001DFB84F834600020E5E7F0B5426E120E24
:1023300093090B70C2F383034B7002F003028A709F
:10234000426E120CCA70B0F86420120A0A7190F83A
:1023500064204A71826E120E4FF6FF7303EA021276
:10236000CA80826EC2F30742CB8843EA1213CB8045
:1023700002F00F020A72B0F86820C2F30722D309F4
:102380004B72C2F380138B72C2F34013CB72C2F351
:1023900000130B7300264E73436C01254FF4007736
:1023A000002B0DD0012B44D0026840F2FF51916305
:1023B000816B41F08051816380F834500120F0BD81
:1023C0009207120D0A6190F868200B6943EA8202B5
:1023D0000A61C26E120E0B6943EA92130B61C2F3DB
:1023E000C2030B7502F007024A75C26EC2F30742C0
:1023F00053098B75C2F38203CB759207520F0A768D
:10240000B0F86C20C2F307220B7E43EAD2130B769E
:102410000C69641C44650B7E9B1C9C40446591F8D0
:1024200008C005FA0CF383655B0A5C43C465076664
:102430001CE090F868209206920A0A61C26E120EA1
:102440000B6943EA02220A61C26EC2F307420B69BA
:1024500013430B61B0F86C20C2F307220B695B1CBD
:102460004FEA83234365C36587650766C2F380131C
:1024700001F8193F4FEA82624FEA52624A7010F83F
:102480006C2F4B7843EAD2134B7002F07F028A70B4
:1024900042684FEA12624FEAD213CB70C2F3411383
:1024A0000B71C2F382034B714FEA82724FEA1272D0
:1024B0008A714268C2F307428B7943EA92138B71A7
:1024C000C2F34013CB710E7202F001024A7282888D
:1024D000C2F307224FEAD2138B72C2F38013CB727E
:1024E000C2F340130B73C2F300134B73C2F38103A7
:1024F0008B7302F00302CA7300794FEA500008742C
:102500004D744FF00000F0BD426C0A60826C4A606E
:10251000C26C8A60026DCA60426D0A61826D4A6156
:10252000C26D8A61006EC8610020704738B50446EC
:10253000002000906946204601F051FF10B1A16BC8
:102540000143A1630098C0F3432038BD70B5044631
:10255000002C04D094F83400002510B105E00120CF
:1025600070BD2577204600F047F8032084F834003A
:10257000204600F007F8A5632563012084F83400A5
:10258000002070BD70B58AB00446002504950595FD
:10259000069507950895762009900095CDE901509C
:1025A0002B462A462946206801F0D8F9114E35609D
:1025B000206801F0E8F9012535600220FFF7E4F812
:1025C000204601F0AAFE38B184F83450A16B0143D3
:1025D000A16301200AB070BD204601F02DFE30B18C
:1025E00084F83450A16B0143A1630120F2E700207D
:1025F000F0E70000A0802542F0B587B00446142122
:1026000002A8FDF733FE2F492068884258D10024E4
:102610002D48016841F400610160006800F4006029
:10262000019029481438016841F0020101600168F5
:1026300001F002010191016841F0040101600168AB
:1026400001F004010191016841F00101016001689C
:1026500001F001010191016841F008010160006889
:1026600000F0080001904FF400400290022503950D
:102670000494032605960C27069702A91348FFF732
:1026800095F84FF4306002900395049405960697F0
:1026900002A90F48FFF78AF82802029003950494D4
:1026A0000596069702A90B48FFF780F804200290D0
:1026B000039504940596069702A90748FFF776F854
:1026C00007B0F0BD002C0140443802400004024035
:1026D0000008024000000240000C02402DE9F04FCB
:1026E00087B004460D4693469A46109EFFF72CF994
:1026F00080465DB194F8340001280DD0A06B40F005
:102700000050A063012007B0BDE8F08FA06B40F03F
:102710000060A0630120F6E70027A763E16D0BEBE3
:102720000A00884205D9A06B40F00070A063012028
:10273000E9E7032084F834002068C762606C012850
:1027400001D04FEA4B2B4FF40071206801F0DAF909
:1027500040F2FF59012148B12268C2F83890A26BBB
:102760000243A26384F834100120CCE74FF0FF301D
:1027700001904FEA4A20029090200390022004909A
:1027800005970F46069101A9206801F0C7F8BAF134
:10279000010F06D9022020635946206801F010FA83
:1027A00004E027635946206801F023FA58B32168F2
:1027B000C1F83890A16B0143A16384F83470012003
:1027C000A1E7406B00040CD54FF0000B206801F02E
:1027D000DEF845F82B000BF1010BBBF1080FF5D328
:1027E00020352EB1FFF7B0F8A0EB0800B0420AD3B5
:1027F0002068C0F83890A06B40F00040A06384F8D7
:10280000347003207FE72068416B11F4957FD8D0A6
:102810002168496BC90512D5BAF1010F0FD9616C56
:1028200003290CD001F08CFA48B12168C1F8389026
:10283000A16B0143A16384F83470012063E7206831
:10284000416B090709D5C0F83890A06B40F008002B
:10285000A06384F83470012055E7416B890709D5DE
:10286000C0F83890A06B40F00200A06384F8347088
:10287000012048E7416B89061ED5C0F83890A06B4F
:1028800040F02000A06384F8347001203BE701F0A1
:102890007EF801C52EB1FFF757F8A0EB0800B04253
:1028A0000AD32068C0F83890A06B40F00040A063C5
:1028B00084F83470012026E72068416B8902E6D451
:1028C0002068C0F8389084F8347000201BE72DE9A8
:1028D000F04F87B004460E4615469A46DDF840B0E4
:1028E000FFF732F800905EB194F8340001280DD063
:1028F000A06B40F00050A063012007B0BDE8F08F4E
:10290000A06B40F00060A0630120F6E70020A06308
:10291000E26D05EB0A01914205D9A06B40F0007011
:10292000A0630120E9E7032184F834102168002026
:10293000C862606C012800D06D024FF400712068FD
:1029400001F0E0F840F2FF584FF0010948B121686A
:10295000C1F83880A16B0143A16384F83490012051
:10296000CBE7BAF1010F07D9202020632946206860
:1029700001F000FA074606E010202063294620688F
:1029800001F011FA07464FB12068C0F83880A06BFB
:102990003843A06384F834900120AEE74FF0FF3055
:1029A00001904FEA4A20029090200390002004906A
:1029B0000590CDF8189001A9206800F0AFFF1FE046
:1029C000406B400409D5002506EB8501206800F026
:1029D000F1FF6D1C082DF7D32036BBF1000F05D099
:1029E000FEF7B2FF0099401A584509D32068C0F895
:1029F0003880A06B3843A06384F8349003207CE7D0
:102A00002068416B11F48D7FDAD02168496BC905CC
:102A100012D5BAF1010F0FD9616C03290CD001F066
:102A20008FF948B12168C1F83880A16B0143A163D7
:102A300084F83490012060E72068416B090709D5CC
:102A4000C0F83880A06B40F00800A06384F8349090
:102A5000012052E7416B890709D5C0F83880A06B87
:102A600040F00200A06384F83490012045E7416BF8
:102A7000C90609D5C0F83880A06B40F01000A063EB
:102A800084F83490012038E7C0F8388084F8349016
:102A9000002032E710B5401EB0F1807F01D3012045
:102AA00010BD4FF0E02460610F21601702F09CF927
:102AB0000020A06107202061002010BD70477047F2
:102AC00070B590F83C20012A19D0012600F83C6F1F
:102AD0000222427050F83C2C5468936824F0700530
:102AE0000C682C4323F0800349681943546050F864
:102AF0003C2C9160467000210170002070BD0220C6
:102B000070BD10B50446002C03D094F83D0010B100
:102B100007E0012010BD002084F83C00204600F0B2
:102B20000DF8022084F83D00211D206801F0EEFD23
:102B3000012084F83D00002010BD000008B50068A9
:102B40002149884212D12148016841F00101016008
:102B5000006800F001000090002201211920FEF71A
:102B600065FFBDE808401920FEF752BF1749091F4D
:102B7000B0F1804F14D0164A904223D1086840F03B
:102B800002000860086800F002000090012211466F
:102B90001D20FEF74BFFBDE808401D20FEF738BFA3
:102BA000086840F001000860086800F0010000902B
:102BB000002211461C20FEF739FFBDE808401C200A
:102BC000FEF726BF08BD0000000001404438024067
:102BD000000400400168CA6842F00102CA6000684F
:102BE000816801F00701062903D0016841F0010165
:102BF00001600020704770B5044694F83C0001283D
:102C000017D0012584F83C50022084F83D0020684C
:102C1000826822F0770222F47F428260086850289E
:102C200031D00DDC20284DD005DCB0B310284ED1BA
:102C300048E0022070BD302844D0402847D137E01A
:102C400060282BD0702806D0B0F5805F3FD0B0F55B
:102C5000005F3CD10BE0CB68D1E90121206801F095
:102C6000BBFD2068816841F0770181602FE0CB686F
:102C7000D1E90121206801F0AFFD2068816841F4AD
:102C80008041816023E0CA684968206801F0B6FD90
:102C90005021206801F0AAFD19E013E0CA684968D4
:102CA000206801F0BCFD6021206801F09FFD0EE06E
:102CB000CA684968206801F0A1FD4021206801F040
:102CC00095FD04E022680146104601F08FFD3C347A
:102CD00065700020207070BD704770B50446206894
:102CE00001694FF00005C943890716D4C168C9437B
:102CF000890712D4E91E01610120207720688069CC
:102D0000800703D02046FFF7E7FF05E0204600F0EC
:102D10009BF8204600F099F8257720680169C9439F
:102D2000490718D4C168C943490714D46FF0040196
:102D30000161022020772068806910F4407F03D071
:102D40002046FFF7C9FF05E0204600F07DF8204649
:102D500000F07BF8257720680169C943090717D47B
:102D6000C168C943090713D46FF008010161042049
:102D700020772068C069800703D02046FFF7ACFFAA
:102D800005E0204600F060F8204600F05EF8257768
:102D900020680169C943C90618D4C168C943C90676
:102DA00014D46FF010010161082020772068C069F9
:102DB00010F4407F03D02046FFF78EFF05E0204649
:102DC00000F042F8204600F040F8257720680169BD
:102DD000C943C90708D1C168C943C90704D1891EBD
:102DE0000161204600F032F820680169C9430906F4
:102DF00009D4C168C943090605D46FF08001016197
:102E00002046FFF75BFE20680169C943490609D4E3
:102E1000C168C943490605D46FF0400101612046ED
:102E200000F07EF820680169C94389060BD4C168A7
:102E3000C943890607D46FF0200101612046BDE82F
:102E40007040FFF73CBE70BD704770473EB504460A
:102E50002AA003C8CDE900012A492068012588423B
:102E600009D12A49284AA1F5C450FDF7C7FB2748D4
:102E7000343080F86D542068B0F1804F03D124497C
:102E8000224800F065FC23492068884234D1204B59
:102E90001D4A1E49521C03F19000FDF73DFC1A4CDF
:102EA000E41EE068012804D002280CD0032814D0C6
:102EB0001CE002208DF8010002AB6A461649174853
:102EC000FDF7F6FE12E011208DF8010002AB6A4614
:102ED00011491248FDF7ECFE08E012208DF80100C0
:102EE00002AB6A460C490D48FDF7E2FEE068401C63
:102EF000E060042800D1E5603EBD000040022100F2
:102F0000000000000000014013000020B01A002063
:102F1000F001002000040040601F00204400002059
:102F2000704710B5044620684169C1F3C01194F898
:102F30003920212A0BD151B1416921F08001416131
:102F4000206B08B1FEF738FA204601F0DEFC20685D
:102F50004169C1F3801194F83A20222A0BD151B172
:102F6000416921F040014161606B08B1FEF724FA2C
:102F7000204601F0AFFC002010BD704770B504463C
:102F800022681068D168526900F00F03002B08D145
:102F9000850606D58D0604D52046BDE8704001F0B3
:102FA000BDBC002B5ED002F0010301F490752B43F1
:102FB00058D0C30705D0CB0503D5E36B43F001031D
:102FC000E363430705D5D30703D0E36B43F0020364
:102FD000E363830705D5D30703D0E36B43F0040312
:102FE000E363030705D5D20703D0E26B42F0080282
:102FF000E263E26B002A2AD0800604D5880602D557
:10300000204601F08BFC20684069C0F38010E16B22
:10301000090700D400B3204601F05CFC2068416938
:10302000490615D5416921F040014161606B58B1F5
:1030300015490165606BFEF706FA002807D0606B42
:10304000016DBDE8704008472046FFF796FF70BD50
:103050002046FFF792FF70BD2046FFF78EFF00204D
:10306000E06370BD020606D50A0604D52046BDE819
:10307000704001F02BBE4006F3D54806F1D520463E
:10308000BDE8704001F034BC4348000870B5044608
:10309000002C04D094F83900002510B106E001207E
:1030A00070BD84F83850204600F022F8242084F8BF
:1030B00039002068C16821F40051C160204601F048
:1030C0007BFC2068016921F490410161206841691D
:1030D00021F02A0141612068C16841F40051C160BA
:1030E000E563202084F8390084F83A00002070BDA0
:1030F00070B586B00646142101A8FDF7B7F824493B
:103100003068884241D100252248016841F40031ED
:103110000160006800F4003000901E48103801681B
:1031200041F001010160006800F0010000900C20F6
:1031300001900220029001200390032004900720B8
:10314000059001A91448FEF731FB154C1348206087
:103150004FF0006060604020A060E56000012061E9
:103160006561A561E561256265622046FEF766FA44
:1031700008B1FDF767FD3463A663002211462620DF
:10318000FEF754FC2620FEF743FC06B070BD00009D
:10319000004400404038024000000240A06002406D
:1031A000781F002090F83A30202B01D00220704781
:1031B000F9B1F2B190F83830012B1CD081628285D0
:1031C000C2850021C163222280F83A2080F838109D
:1031D0000168CA6842F48072CA6001684A6942F0B4
:1031E00001024A610068C16841F02001C16000200D
:1031F00070470120704702207047000010B5144C42
:10320000E17920460029807900D128B11149E2797D
:103210008854E179491CE171FF2802D1207A401CD1
:103220002072207A032809D109490B4B491C094A0D
:10323000481E00F035FB00202072E0710120A070D4
:1032400003490122BDE81040891D0448FFF7AABFC9
:1032500010000020541F0020E41A0020B0010020BC
:103260002DE9F84304460D4691461E4694F8390070
:10327000202802D00220BDE8F883B5B1B9F1000FD3
:1032800013D094F83800012811D0012084F83800B8
:103290000027E763212084F83900FEF755FB8046BC
:1032A000A4F82490A4F826902DE00120E3E7022062
:1032B000E1E7E08C401EE084A068B0F5805F09D0B3
:1032C0004346002280212046009601F032FDB0B135
:1032D0000320D0E74346002280212046009601F0DB
:1032E00028FD08B10320C6E728882168C0F308003C
:1032F0004860206908B16D1C05E0AD1C03E0216841
:1033000015F8010B4860E08C0028D2D1434600221A
:1033100040212046009601F00CFD08B10320AAE7E9
:1033200020203834607027700020A4E7F7B50446E9
:1033300094F83900202801D00220FEBD019979B30C
:1033400072B394F8380001282DD0012084F8380099
:103350002162A284E2840025E563212084F83900FB
:10336000236B1248D863236B11481864236B1148F0
:10337000D864206B056520681346001D266B024645
:103380003046FEF7C5F921686FF04000086084F808
:1033900038502068416941F0800141610020FEBD44
:1033A000FFE70120FBE70220F9E700009D48000845
:1033B000CB48000853480008014901208870704735
:1033C000100000207047FEE77047000010B59623FC
:1033D000082206A10848FFF743FF6423BDE8104018
:1033E000032206490448FFF73BBF000076697320BB
:1033F00070302C3000000000B001002001000020DF
:1034000010B59623082206A10848FFF729FF642378
:10341000BDE81040032206490448FFF721BF000021
:103420007669732070302C3100000000B00100205C
:103430000100002010B50F480D49016008214160CE
:1034400000218160C1604FF4102202614FF4C0027C
:103450004261017641768176C17601774177FDF749
:1034600028FE002803D0BDE81040FDF7EBBB10BDDF
:10347000006400404400002008B50948016841F498
:1034800000110160006800F4001000900022052186
:103490001120FEF7CBFABDE808401120FEF7B8BABC
:1034A0003038024010B504490448FDF7CCFB02490E
:1034B000491E087010BD0000260000205C6700084F
:1034C000F0B587B0142102A8FCF7D0FE00242948EB
:1034D000016841F080010160016801F08001019103
:1034E000016841F001010160016801F001010191F1
:1034F000016841F002010160016801F002010191DF
:10350000016841F004010160016801F004010191CA
:10351000016841F008010160006800F008000190B6
:10352000154F002202213846FEF706FA134E0022FC
:1035300007213046FEF700FA02200290012503958C
:103540000494059402A93846FEF730F9072002904A
:1035500003950494059402A93046FEF727F98020CC
:1035600002900394049402A90548FEF71FF907B0DE
:10357000F0BD00003038024000000240000402406C
:103580000008024006480549016000214160816051
:10359000C16001614161032181617047002C0140DC
:1035A0006C00002010B586B00024029403940494AB
:1035B00005940094019415481349016041F61F4198
:1035C0004160846040F6C311C1600461446184615C
:1035D000FFF797FA08B1FDF735FB4FF480500290E2
:1035E00002A90A48FFF707FB08B1FDF72BFB00947F
:1035F000019469460548FFF763FA002801D0FDF7FA
:1036000021FB06B010BD000000000140F0000020CA
:1036100010B586B000240294039404940594009499
:10362000019414484FF08041016041F61F41416010
:10363000846040F6C311C16004618461FFF761FAE0
:1036400008B1FDF7FFFA4FF48050029002A9094833
:10365000FFF7D1FA08B1FDF7F5FA00940194694635
:103660000448FFF72DFA002801D0FDF7EBFA06B069
:1036700010BD00003001002010B586B00024029477
:103680000394049405940094019414481249016031
:1036900047F27F014160846040F69F71C160046120
:1036A0008461FFF72EFA08B1FDF7CCFA4FF4805091
:1036B000029002A90948FFF79EFA08B1FDF7C2FA85
:1036C0000094019469460548FFF7FAF9002801D0F3
:1036D000FDF7B8FA06B010BD0004004070010020EC
:1036E00010B50C480A4901604FF4E13141600021F6
:1036F0008160C16001610C2242618161C161FFF79B
:10370000C5FC002803D0BDE81040FDF79BBA10BDF2
:1037100000440040B0010020FEE7704770B5064647
:103720000C461546207801280DD1287801280AD1A9
:103730003046FCF7B2FD82B231460348FFF7F6FD92
:1037400000202870207070BDB0010020704700007C
:1037500070B505460C46207800F001002070002866
:103760007ED0002085F82C00183414F8150C14F8BD
:10377000161C00EB012080B2FCF722FE9FED421BDD
:1037800053EC112BFCF799FDFCF727FE80B2688003
:1037900000EE100ADFED3E0AB8EE400A20EE200AE5
:1037A000DFED3C0A20EE200ABCEEC00A10EE100A43
:1037B0002870687A5438FCF7F2FD9FED371B53EC04
:1037C000112BFCF77AFDFCF721FE00EE100ABCEE8F
:1037D000C00A10EE100A287214F8080C14F8071C1E
:1037E00000EB0120688214F8060C14F8051C00EBAD
:1037F0000120A88214F8040C14F8031C00EB01202B
:10380000E8822078617800EB0120A881A078E17837
:1038100000EB0120E8812079617900EB012028820A
:10382000207A617A00EB01202884A07AE17A00EB0B
:1038300001206884207B617B00EB0120A884207C30
:10384000617C00EB0120E884A07CE17C00EB01209E
:103850002885207D617D00EB01206885207E00E0C9
:1038600010E02876607E6876A07EA876E07EE87616
:10387000207F2877607F6877A07FE17F00EB0120C1
:10388000E88370BD01206DE7333333333333C33FF7
:10389000F83DC13CCDCC4C3F666666666666084026
:1038A00070B50446107803260125652811D06628D6
:1038B00013D1507820B301282BD002282BD0032815
:1038C0000BD10E702078032807D1BDE87040FFF7B8
:1038D00097BD90780A2801D0257070BD2078032804
:1038E00006D083F86B542670BDE87040FFF788BDA2
:1038F000184600F03DFE2570BDE87040FFF766BD3C
:103900000020087020780328E7D1BDE87040FFF759
:1039100077BD0D7070BD0220087070BD0A684262EC
:103920004A688262D1E902231A43D1E904310B4388
:103930001A43C16A21F0F7011143C16200207047A8
:103940000069C0B27047006800F00300704708B516
:103950000844143000900098006808BD0FB4DDE9F9
:1039600001121143DDE903231A431143059A114360
:10397000069A1143426847F6FF639A430A4342603E
:10398000002004B070470321016000207047D0F888
:10399000800070470A688260D1E901231A43D1E9A7
:1039A00003310B431A43C1686FF30B011143C1602C
:1039B000002070470968C0F88010002070470000A0
:1039C0007CB50546264803C8CDE9000101222549FA
:1039D000284601F053FF002834D19623082222A163
:1039E0002448FFF73DFC6423032223492148FFF7C5
:1039F00037FC214C05F26446641E0AE0E268521C62
:103A0000E2601EA1684601F0DBF969463046FCF72A
:103A10004BFC0021304602F05AF80428EED10A226D
:103A2000314605F50C7001F059FF60B1962308226C
:103A300014A11048FFF714FC642303220E490D481B
:103A4000FFF70EFC7CBD9623082211A10948FFF761
:103A500007FC6423032208490648FFF701FC7CBDEC
:103A600054670008260000207669732070312C31DD
:103A700000000000B00100200100002025642E5449
:103A8000585400007669732070312C30000000001B
:103A90007669732070322C310000000010B586B0BA
:103AA00004460191372102914021039100210491A4
:103AB0004FF48061059101A92046FFF76BFF41F2A9
:103AC00088323721204600F0A1F906B010BD000071
:103AD00010B586B004460A4A11430191292102918A
:103AE0004021039100210491510D059101A9204627
:103AF000FFF750FF204600F043FA06B010BD00006B
:103B00000000108010B586B004460191102102918A
:103B100040210391002104914FF48061059101A996
:103B20002046FFF737FF41F288321021204600F08F
:103B30006DF906B010BD10B586B00446019106219E
:103B4000029140210391002104914FF4806105917D
:103B500001A92046FFF71EFF41F2883206212046C8
:103B600000F054F906B010BD10B586B0044600212F
:103B700001910291039104914FF48061059101A993
:103B80002046FFF707FF204600F026F906B010BDDB
:103B900010B586B004464FF4D57101910821029109
:103BA00040210391002104914FF48061059101A906
:103BB0002046FFF7EFFE204600F04AFA06B010BD9F
:103BC00010B586B004460191122102914021039163
:103BD000002104914FF48061059101A92046FFF76F
:103BE000D9FE41F288321221204600F00FF906B0CA
:103BF00010BD10B586B004460191112102914021FB
:103C00000391002104914FF48061059101A92046A0
:103C1000FFF7C0FE41F288321121204600F0F6F88D
:103C200006B010BD10B586B004460192072102917E
:103C300040210391002104914FF48060059001A977
:103C40002046FFF7A7FE41F288320721204600F008
:103C5000DDF806B010BD10B586B004460021019114
:103C600002220292C022039204914FF480610591D6
:103C700001A92046FFF78EFE204600F059F906B054
:103C800010BD10B586B00446019109210291C021F2
:103C90000391002104914FF48061059101A9204610
:103CA000FFF778FE204600F043F906B010BD10B5CE
:103CB00086B00446002101913322029240220392F1
:103CC00004911101059101A92046FFF763FE41F21D
:103CD00088323321204600F099F806B010BD10B5A7
:103CE00086B0044601910D210291402103910021EB
:103CF00004914FF48061059101A92046FFF74AFE27
:103D000041F288320D21204600F080F806B010BD47
:103D100070B586B006460D46002301930324029435
:103D20004024039404932301059301A93046FFF72F
:103D300031FE2A460321304600F044F906B070BD3A
:103D400010B586B00446002101910C220292402257
:103D5000039204911101059101A92046FFF71AFE73
:103D6000034A0C21204600F051F806B010BD0000B7
:103D700000E1F50510B586B00446019119210291C4
:103D800040210391002104914FF48061059101A924
:103D90002046FFF7FFFD41F288321921204600F04E
:103DA00035F806B010BD10B586B004460191182153
:103DB000029140210391002104914FF4806105910B
:103DC00001A92046FFF7E6FD41F28832182120467E
:103DD00000F01CF806B010BD0B494FF4FA52096808
:103DE000B1FBF2F141F288325143491E4A1C07D01F
:103DF000426B1206F9D540F2FF51816300207047F3
:103E00004FF00040704700003800002010B5034616
:103E100045484FF4FA540068B0FBF4F05043401E9C
:103E2000421C09D05A6B12F0450FF8D0586B40076E
:103E300005D50420986310BD4FF0004010BD586BAD
:103E4000C00702D00120986310BD1846FFF778FD27
:103E5000884201D0012010BD40F2FF50986300213C
:103E60001846FFF774FD3149084201D1002010BD0A
:103E7000002802DA4FF0007010BD410001D540204B
:103E800010BD810001D5802010BDC10002D54FF4C6
:103E9000807010BD010102D54FF4007010BD4101CA
:103EA00002D54FF4806010BDC10102D54FF400600F
:103EB00010BD010202D54FF4805010BD410202D561
:103EC0004FF4005010BD810202D54FF4804010BD68
:103ED000C10202D54FF4004010BD410302D54FF49A
:103EE000003010BD810302D54FF4802010BDC10306
:103EF00002D54FF4002010BD010402D54FF480100C
:103F000010BD410402D54FF4001010BD810402D54C
:103F10004FF4800010BD000702D54FF4000010BD23
:103F20004FF4803010BD00003800002008E0FFFD95
:103F300012494FF4FA520968B1FBF2F141F28832AA
:103F40005143491E4A1C0AD0426B12F0450FF8D06B
:103F5000416B490706D504218163042070474FF067
:103F600000407047416BC90703D0012181630120E4
:103F7000704740F2FF5181630020704738000020F5
:103F80000F494FF4FA520968B1FBF2F141F288325D
:103F90005143491E4A1C0AD0426B12F0450FF8D01B
:103FA000416B490706D504218163042070474FF017
:103FB0000040704740F2FF518163002070470000CD
:103FC0003800002010B5034620484FF4FA5400682A
:103FD000B0FBF4F041F288346043401E441C09D029
:103FE0005C6B14F0450FF8D0586B400705D50420E2
:103FF000986310BD4FF0004010BD586BC00702D051
:104000000120986310BD1846FFF79AFC884201D042
:10401000012010BD40F2FF50986300211846FFF7C1
:1040200096FC10F4604F04D0410406D54FF40050C4
:1040300010BD000C1080002010BD000402D54FF40C
:10404000805010BD4FF4803010BD000038000020BB
:1040500010494FF4FA520968B1FBF2F141F288328B
:104060005143491E4A1C0BD0426B12F0450FF8D049
:10407000416B4A074FF0400105D58163042070472A
:104080004FF000407047426B520600D5816300201C
:1040900070470000380000202DE9F04104468846B2
:1040A00016461D4694F86B040027012804D12046CB
:1040B000FFF786FC84F86B74287801281ED13780BE
:1040C00004F50C700646D4F83C1201F0BAFA4046EA
:1040D000FCF7E3F8024604F58C634146304601F0F4
:1040E0005CFD304601F011FD94F86C04012801D00C
:1040F000012000E0002084F86C042F70BDE8F081FE
:1041000010B5064C01202070FCF770FC18B920781F
:1041100020F001002070207810BD00002400002055
:104120002DE9F04F89B004460E46FDF70DFC074619
:104130000025AA46CDF804A0CDF808A008212068E3
:10414000FFF7E0FC00283ED1B4F8500001042068DD
:10415000FFF7A4FC002836D1401E03904FF008085A
:10416000CDF81080302005904FF00209CDF818905E
:10417000CDF81CA00120089003A92068FFF7CEFB12
:104180002068FFF794FD00281DD10DF1040A40F2CC
:104190002A4B0CE0416B890204D5FFF7F8FB4AF883
:1041A00025006D1CFDF7D0FBC01B401C0ED0206805
:1041B000416B11EA0B0FEDD02168496B090708D557
:1041C000C0F83880082009B0BDE8F08F4FF00040FB
:1041D000F9E7416B890703D5C0F838900220F2E770
:1041E000416B890603D5202181632020EBE740F253
:1041F000FF51816301980199000601F47F4140EA73
:104200000120019901F47F0140EA1120019940EA5F
:104210001160706002980299000601F47F4140EA43
:104220000120029901F47F0140EA1120029940EA3D
:10423000116030600020C6E710B590B00446012040
:1042400004902068FFF77FFB002863D0606C032890
:1042500019D02068FFF7FFFC002859D10021206801
:10426000FFF775FB606704212068FFF770FBA0670C
:1042700008212068FFF76BFBE0670C212068FFF73F
:1042800066FBC4F88000606C032805D004A9206890
:10429000FFF73EFD00283BD1606C03281CD0BDF821
:1042A0001000206501042068FFF7EBFC00282FD1E7
:1042B00000212068FFF74BFB606604212068FFF7B0
:1042C00046FBA06608212068FFF741FBE0660C2151
:1042D0002068FFF73CFB206704212068FFF737FBCD
:1042E000000DE06405A92046FEF71FF8B4F8500061
:1042F000002302042068FFF795FC002808D1D4E9C8
:10430000051220698DE807000FCCFFF727FB00207E
:1043100010B010BD4FF08060FAE72DE9F84F044669
:1043200000270097BA4600252068FFF71DFC0028EB
:1043300011D12068FFF72CFC4FF080784FF6FF7604
:1043400010B3A7644FF080591AE00098411C009107
:10435000B04202D14046BDE8F88F00212068FFF747
:104360009DFB08B14846F6E700212068FFF7B0FB47
:1043700008B14846EFE700212068FFF7E8FAC50FCB
:10438000002DE2D0676428E04FF00109C4F848909E
:104390001AE00098411C0091B04201D14046DAE792
:1043A00000212068FFF77AFB0028D4D14FF080412C
:1043B0002068FFF78DFB0028CDD100212068FFF792
:1043C000C6FA82464FEADA75002DE2D05FEA4A006B
:1043D00002D5C4F8449000E067640020BBE770B5E4
:1043E00004460D46002D0ED0B4F85000010420689C
:1043F000FFF775FC002805D100212068FFF7A7FA18
:104400002860002070BD4FF0006070BD1CB50446F0
:1044100000200090019000212068FFF798FA8001A9
:1044200002D54FF400601CBD69462046FFF778FEB8
:104430000028F8D10198C0030ED5B4F8500001044B
:104440002068FFF72BFB0028EDD100212068FFF743
:1044500072FB0028E7D11CBD4FF080601CBD1CB56D
:10446000044600200090019000212068FFF76FFAB9
:10447000800102D54FF400601CBD69462046FFF75D
:104480004FFE0028F8D1019840030ED5B4F8500033
:1044900001042068FFF702FB0028EDD1022120680B
:1044A000FFF749FB0028E7D11CBD4FF080601CBD21
:1044B00070B50546054C01202070FCF7A3FA18B929
:1044C0002846FFF71DFE2070207870BD24000020D4
:1044D00010B588B0144614480078C00702D00320F5
:1044E00008B010BD39B1012907D002290CD0032929
:1044F00011D00420F4E70020F2E76846FCF770FAD8
:10450000069820600020EBE76846FCF769FA0798F8
:1045100020800020E4E76846FCF762FA0798400A2A
:1045200020600020DCE7000024000020084610B5D1
:1045300011461A460124A31EFCF782FA20B9FCF7A3
:1045400055FA0028FBD10024204610BDFFF7D8BD46
:10455000084610B511461A460124A31EFCF780FA3E
:1045600020B9FCF743FA0028FBD10024204610BDF7
:1045700010B500F50C7001F04FF8962308220EA13B
:104580001048FEF76DFE642303220F490D48FEF725
:1045900067FE962308220DA10A48FEF761FE6423F8
:1045A000032209490748FEF75BFE0022BDE81040E0
:1045B0000949104601F062B97669732070312C30D8
:1045C00000000000B0010020010000207669732087
:1045D00070322C3000000000260000207047FDF7EC
:1045E000B9B9000030B5A3B0342116A8FBF73EFEE0
:1045F000142111A8FBF73AFE3C2102A8FBF736FE76
:1046000000252248016841F080510160006800F0F7
:10461000805001901E48016841F4404101600068EB
:1046200000F44040019001201690000417900224ED
:104630001C9480011D9004201E9048201F902094FF
:1046400003202190229416A8FDF758FC08B1FCF72E
:10465000F9FA0F201190129413954FF48050149092
:104660001595022111A8FDF74DFB08B1FCF7EAFAF8
:10467000602002900C950A9502A8FDF709FA00281F
:1046800001D0FCF7DFFA23B030BD00004038024013
:10469000007000401048016841F4700101600F484B
:1046A000016841F0010101600C4A002108321160EB
:1046B00002680B4B1A400260031D0A4A1A60026826
:1046C00022F48022026005480C300160024958063D
:1046D000803908607047000088ED00E00038024033
:1046E000FFFFF6FE103000240148FEF7F6BA000086
:1046F000F00000200148FEF7F0BA00003001002071
:104700000148FEF7EABA0000700100202DE9F041EF
:104710000268264D264E274FDFF89CC0274B4FF0EE
:104720008048A84209D0404507D0B04205D0B842E1
:1047300003D0604501D0984203D122F070044A684A
:104740002243A8421BD0404519D0B04217D0B842EE
:1047500015D0604513D0984211D0194CA0420ED00C
:10476000184CA0420BD0184CA04208D0174CA042C5
:1047700005D0174CA04202D0164CA04203D122F41F
:104780004074CA6822434C6922F0800222430260CE
:104790008A68C2620A688262A84201D0984201D146
:1047A0000969016301214161BDE8F0810000014018
:1047B0000004004000080040000C004000040140DC
:1047C0000040014000440140004801400018004002
:1047D000001C00400020004010B5846824F47F4491
:1047E00042EA03220A432243826010BD826822F01B
:1047F00070020A4342F007018160704710B5036AF6
:10480000046A24F001040462846924F0F00444EA98
:10481000021423F00A020A438461026210BD10B53B
:10482000036A23F0100303628469036A24F470446A
:1048300044EA023223F0A00343EA011182610162DB
:1048400010BD10B5806B0021C185C184FEF795FBBA
:1048500010BD70B5846B20684069C0F3C01094F837
:1048600039100025212904D118B1E584204600F033
:104870004CF820684069C0F3801094F83A1022295F
:1048800004D118B1E585204600F024F8E06B40F033
:104890001000E0632046FEF770FB70BD10B50146C6
:1048A000886B09680968C9050CD40021C1840168B6
:1048B0004A6922F080024A610068C16841F0400103
:1048C000C16010BDFEF778FD10BD10B5806BFEF71E
:1048D00079FD10BD0168CA6822F49072CA6001684F
:1048E0004A6922F001024A61202180F83A1070479B
:1048F00010B50168CA6822F04002CA60202180F821
:104900003910FEF759FD002010BD0168CA6822F079
:10491000C002CA60202180F83910704710B590F8A5
:104920003A10222901D0022010BD8168B1F5805FC4
:1049300011D0016919B30168496801F07F03816AE8
:104940004A1C82620B70C18D491E0904090CC18585
:104950001CD0002010BD816A02693AB10268526819
:10496000D2B20A80816A491C8162ECE7026852680F
:10497000C2F308020A80816A891C8162E3E7016848
:104980004A68816A4B1C83620A70DCE70168CA6866
:1049900022F02002CA600168CA6822F48072CA60EC
:1049A00001684A6922F001024A61202180F83A1028
:1049B000FEF724FC002010BD2DE9F04104462068DC
:1049C0000169E26821F4405111430161A168206945
:1049D000E26901436069104301432068C26849F2FB
:1049E0000C639A430A43C26020684169A26921F4BA
:1049F000407111434161E069B24AB34964253226EE
:104A0000B0F5004F59D02068884201D090427DD146
:104A1000FDF730FA00EBC00101EB0010616889007E
:104A2000B0FBF1F7FDF726FA00EBC00101EB001037
:104A300061688900B0FBF1F0B0FBF5F06FF0180190
:104A4000484307EB800006EB0010B0FBF5F000F0E8
:104A5000F007FDF70FFA00EBC00101EB00106168F1
:104A60008900B0FBF1F0B0FBF5F007EB0017FDF7A4
:104A700001FA00EBC00101EB001061688900B0FB96
:104A8000F1F8FDF7F7F900EBC00101EB00106168E8
:104A90008900B0FBF1F0B0FBF5F06FF0180148436E
:104AA00008EB800006EB0010B0FBF5F0216800F089
:104AB0000F0038448860BDE8F0812068884201D04A
:104AC000904256D1FDF7D6F900EBC00101EB001082
:104AD00061684900B0FBF1F0B0FBF5F00701FDF7AC
:104AE000C9F900EBC00101EB001061684900B0FB9F
:104AF000F1F8FDF7BFF900EBC00101EB00106168B0
:104B00004900B0FBF1F0B0FBF5F000E086E06FF09B
:104B10001801484308EB800006EBC000B0FBF5F03D
:104B200000F0F80007EB4007FDF7A4F900EBC00127
:104B300001EB001061684900B0FBF1F8FDF79AF94C
:104B400000EBC00101EB001061684900B0FBF1F01F
:104B5000B0FBF5F06FF01801484308EB800006EB5E
:104B6000C000B0FBF5F0216800F007003844886011
:104B7000A1E7FDF76FF900EBC00101EB00106168E0
:104B80004900B0FBF1F0B0FBF5F00701FDF762F969
:104B900000EBC00101EB001061684900B0FBF1F8C7
:104BA000FDF758F900EBC00101EB00106168490006
:104BB000B0FBF1F0B0FBF5F06FF01801484308EBE3
:104BC000800006EBC000B0FBF5F000F0F80007EB4A
:104BD0004007FDF73FF900EBC00101EB00106168F1
:104BE0004900B0FBF1F8FDF735F900EBC00101EB2E
:104BF000001061684900B0FBF1F0B0FBF5F06FF018
:104C00001801484308EB800006EBC000B0FBF5F04C
:104C1000216800F00700384488604CE7FDF71AF976
:104C200000EBC00101EB001061688900B0FBF1F7F7
:104C3000FDF710F900EBC00101EB0010616889007D
:104C4000B0FBF1F0B0FBF5F06FF01801484307EB53
:104C5000800006EB0010B0FBF5F000F0F007FDF768
:104C6000F9F800EBC00101EB001061688900B0FBAE
:104C7000F1F0B0FBF5F007EB0017FDF7EBF800EBF8
:104C8000C00101EB001061688900B0FBF1F8FDF78D
:104C9000E1F800EBC00101EB001061688900B0FB96
:104CA000F1F0B0FBF5F06FF01801484308EB80001D
:104CB00006EB0010B0FBF5F0216800F00F0038445F
:104CC0008860F8E6001401400010014090F83910A7
:104CD000212901D0022070478168B1F5805F0CD096
:104CE000016A4A1C0262026809785160C18C491E3F
:104CF0000904090CC18410D019E0016A026809880E
:104D0000C1F308015160016919B1016A491C0162CE
:104D1000ECE7016A891C0162E8E70168CA6822F0D1
:104D20008002CA600068C16841F04001C160002093
:104D300070472DE9F04104460E4617469846069DF9
:104D40001DE0681C1BD02DB1FCF7FEFDA0EB080098
:104D5000A84214D92068C16821F4D071C1602068CC
:104D6000416921F001014161202084F8390084F873
:104D70003A00002084F838000320BDE8F081206864
:104D8000006836EA000004D00020B842D9D00020E4
:104D9000F3E70120F9E7000010B507480068006854
:104DA000C043800602D40448FEF7BBF8BDE81040BB
:104DB0000148FEF7E3B80000B0010020FEE7000064
:104DC0000FB4084B10B504A902AA039800F02CF800
:104DD000044602A9002000F003F9204610BC5DF84B
:104DE00014FB0000E14F00080907090E002804DB4E
:104DF00000F1E02080F80014704700F00F0000F18F
:104E0000E02080F8141D704702E008C8121F08C196
:104E1000002AFAD170477047002001E001C1121F3B
:104E2000002AFBD1704700002DE9FF4F8BB09A4656
:104E30000F460546002606E025280BD052460D9960
:104E400090476D1C761C28780028F5D10FB03046AD
:104E5000BDE8F08F0024A0460122604900E0044331
:104E600015F8013F203B02FA03F00842F7D12878F9
:104E70002E2817D115F8010F44F004042A280ED06B
:104E80006FF02F022878A0F1300109290AD808EB29
:104E9000880102EB410100EB01086D1CF2E757F8B5
:104EA000048B6D1C287869283ED006DC0028CDD004
:104EB00063280BD0642804D136E0732810D07528FD
:104EC0004BD052460D999047761C85E017F8040B9D
:104ED0008DF8000000208DF80100E946012003E074
:104EE00057F8049B4FF0FF3061074FF0000401D4E6
:104EF0000AE0641C44450DDA8442FADB19F8041018
:104F00000029F6D106E0641C8442FCDB19F8041089
:104F10000029F8D1264404E019F8010B52460D99F6
:104F20009047641EF8D257E001CF4FF00A0B0028DB
:104F300002DA40422D2102E0210504D52B218DF813
:104F40002410012103E0E10705D02021F7E70DF14E
:104F5000200908910CE00021F9E701CF4FF00A0B7E
:104F6000F9E75946FBF76EFA01F1300209F8012D15
:104F70000028F6D1ADEB090000F1200B600701D449
:104F80004FF00108D84502DDA8EB0B0000E000203F
:104F90008046002406E009A85246005D0D9990471E
:104FA000641C761C08988442F5DB04E030205246ED
:104FB0000D999047761CB8F10001A8F10108F5DCC5
:104FC00005E019F8010B52460D999047761CBBF18C
:104FD0000001ABF1010BF4DC6D1C34E70928010082
:104FE0000A68531C0B6010707047000010B504462F
:104FF0000020E070401EE062204601F02EFA08B169
:10500000042010BD04F22E2001F036F9A0F52A414B
:10501000553901D0032010BD94F83000E92805D09F
:10502000EB2816D194F83200902812D104F16600D2
:1050300001F017F90849B1EB002F01D1002010BD94
:1050400004F1820001F00DF90449884201D10020E9
:1050500010BD022010BD00000046415446415433AB
:1050600000E0401C02780AB18A42FAD10078704709
:10507000F0B500221546154E11E006EB02131C6830
:105080005CB10768BC4209D15C688768BC4205D145
:105090009B684469A34204D000E00125521C022A07
:1050A000EBD3022A01D079B906E01DB9022901D05B
:1050B0001220F0BD0020F0BD06EB02108089B0F593
:1050C000807F01D00020F0BD1020F0BDD81F00204F
:1050D00030B50021054B002403EB01121568854211
:1050E00000D11460491C0229F6D330BDD81F00201E
:1050F0000368C26A121D480A5989B0FBF1F002CA5E
:1051000021B1884204D211680844704700207047DA
:10511000401A121DF3E7891E4269921E8A4201D885
:1051200000207047826A408901FB002070472DE90A
:10513000F04180460F46D8F80050002F08D039467D
:10514000404600F07DFF022809D20120BDE8F08131
:10515000EE6816B16869B04207D8012605E0411C27
:10516000F4D069698142F1D83E463446641C6869CE
:10517000A04204D80224022E01D20020E6E72146F4
:10518000404600F05DFF38B10128DFD0411CDDD082
:10519000B442EBD10020D9E74FF0FF36324621462A
:1051A000284601F074F928B927B122463946284625
:1051B00001F06DF920B101280FD001242046C5E788
:1051C000EC60D5E90401891E884201D8401E28619F
:1051D000287940F001002871F0E73446EEE700003E
:1051E0002DE9F0478A46DAF8009000F124080B22F6
:1051F0002021404601F02BF900252E46082728469D
:105200006D1C19F80040202C15D92F2C0DD05C2CCA
:105210000BD02E2C01D0BE421AD30B2F01D02E2C36
:1052200013D00620BDE8F0876D1C19F805002F2863
:10523000FAD05C28F8D009EB0500CAF80000FEB1EE
:1052400098F80000E5281DD01FE008260B27D6E7B8
:10525000802C03D31148204410F8804C10A0214624
:10526000FFF7FEFE08B10620DCE7A4F16100192873
:1052700001D8203CE4B23046761C08F80040BEE776
:105280000620CFE7052088F80000202C01D8042054
:1052900000E0002088F80B000020C3E790670008BA
:1052A000222A2B2C3A3B3C3D3E3F5B5D7C7F00003D
:1052B000401E022810D2094901EB00118889B0F57F
:1052C000807F00D1002008B1401E80B2888108B9DB
:1052D000002008600020704702207047D81F00207F
:1052E0002DE9F04105460E462F680021284600F0C2
:1052F000E9F888B900243846E96901F0AEF858B9F0
:10530000296A0A78E52A0CD05AB1002401212846DE
:1053100000F035F80028EED0042800D10720BDE8C1
:10532000F081641CB442F7D0F0E770B504462668FB
:105330000021204600F0C6F800281DD13046E16962
:1053400001F08BF80546B5B9206A0178A9B1C17A98
:1053500001F03F01A171C17A090705D40B2204F1C4
:10536000240101F05FF830B10021204600F007F879
:105370000546002DE2D0284670BD0425FBE72DE947
:10538000F04705460F462C68D5F8148008F1200830
:10539000E869002802D0B8F5001F02D30420BDE858
:1053A000F0875FEAC85166D1401CE861A9694FF0F7
:1053B000000929B16089401E10EA582F08D05AE030
:1053C0002089B0EB581F56D8C5F81C900420E6E79A
:1053D000284600F035FE0646012E01D80220DEE701
:1053E000701C14D06069B0423FD897B12846A969B3
:1053F000FFF79DFE064630000FD0012E0FD0701C27
:105400000FD0204601F060F968B10120C7E7012004
:10541000C5E7C5F81C900420C1E70720BFE70220BC
:10542000BDE70120BBE74FF40072002104F130001A
:1054300001F00DF8002731462046FFF76CFEE062D0
:105440004FF001090BE084F80390204601F03CF98D
:1054500008B10120A3E77F1CE06A401CE06260897C
:10546000B842F0D8E06AC01BE062AE613146204627
:10547000FFF751FEE861C5F81480C8F30800204426
:105480003030286200208AE770B504462668012182
:105490002046FFF725FF054695B93046E16900F043
:1054A000DCFF054665B920220021206A00F0CFFF0D
:1054B0000B2204F12401206A00F0C0FF0120F070EB
:1054C000284670BD2DE9F04106460D463768B5F512
:1054D000001F01D2E80602D00220BDE8F08175610C
:1054E000B4681CB93878032800D37C6A1CB1788969
:1054F0004FEA40281AE03889B0EB551F01D8022046
:10550000EBE7786AF06118E02146304600F098FD3C
:105510000446601C06D0022C02D37869A04203D84E
:105520000220DAE70120D8E7A5EB08054545EBD2D4
:1055300021463846FFF7EFFDF061B461F06948B1EC
:1055400000EB5520F061C5F308003844303030627C
:105550000020C2E70220C0E710B50021084A135C12
:10556000002B0AD101211154111802EB8000097A95
:1055700040680268084690470146084610BD000092
:10558000F81F002030B4054B1C1803EB8000247A70
:1055900040680369204630BC18470000F81F00200F
:1055A00030B4054C251804EB80002D7A40688468DF
:1055B0002846A44630BC6047F81F002004490A185A
:1055C00001EB8000127A40684168104608470000ED
:1055D000F81F002030B4054C251804EB80002D7A0C
:1055E0004068C4682846A44630BC6047F81F0020C5
:1055F0000020084900E0401C022804D201EB001200
:105600001268002AF7D1022801D00120704700203B
:1056100070470000D81F002038B50446204600F02F
:1056200074FA00280CD16946204601F077F800286A
:1056300006D12069FFF73CFE002801D1002121603E
:1056400038BD2DE9F84F04460D466946204601F065
:1056500065F881465FEA090001D194F81590B9F127
:10566000000F02D04846BDE8F88FE76A04F1300821
:10567000002F72D0681C29D0E068A84200D20546ED
:10568000A561002D4DD0691E2046FFF731FDE06178
:1056900001460098FFF73FFDE8B300996D1E4A8967
:1056A000521E02EA55221518208BC005EAD0226A44
:1056B000AA42E7D0207D000641D548780123414623
:1056C000FFF788FF40B301206075CCE757F804BBB3
:1056D0000226A168E1B18A460025B61C88466D1CE9
:1056E000204600F0ADFC0146012902D80220607579
:1056F000B9E7481C16D008F101084145EED05E45D7
:1057000002D820C747F804AB009840698842E2D825
:10571000E06A066001E00BE00DE05E4505D8002080
:105720003860A8E0012060759DE74FF01109A2E004
:105730000220607597E7207D00F07F0020750098BB
:1057400001232A4640784146FFF72AFF18B101207D
:10575000607588E701E025628DE0E068A84203D229
:10576000217D890700D40546A0690027A761FDB106
:10577000009949894E0268B1691E401EB1FBF6F1DD
:10578000B0FBF6F2914205D3711E8843A0612D1A39
:10579000E1690CE0A16849B900212046FFF7C7FC88
:1057A0000146012905D0481C06D0A160E16139BB42
:1057B00033E00220607556E70120607553E7AD1BAA
:1057C000A0693044A061207D800706D52046FFF700
:1057D000AEFC014629B9002514E0204600F030FC5B
:1057E0000146481C08D0012903D900984069884225
:1057F00005D80220607536E70120607533E7E16166
:10580000B542DCD8A0692844A061E80505D000981D
:10581000FFF781FCE0B100EB5527E168A069884201
:1058200004D9E060217D41F040012175C00522D0FE
:10583000226ABA421FD0207D000610D500980123AD
:1058400041464078FFF7C6FE28B1012060750AE79F
:105850000220607507E7207D00F07F00207500982A
:1058600001233A4640784146FFF79AFE10B10120E5
:105870006075F8E627624846F5E600002DE9F74135
:1058800081B0164602980090684600F072FC04460B
:10589000002C03DA0B2004B0BDE8F0810E4F57F85E
:1058A00024504FF0000825B12846FFF711FC85F879
:1058B00000800198002801D080F8008047F824007B
:1058C00001D0012E01D00020E5E7002201A902A8A5
:1058D00000F03CFADFE70000400000202DE9F7432C
:1058E0008EB00546002D0BD002F03F06324601A9CE
:1058F0000FA800F02BFA04464FF0000824B1DFE0B7
:10590000092011B0BDE8F0830198029002A80F9918
:1059100000F05AFB044620000ED19DF83700000627
:1059200001D5062408E0700801D0012100E0002123
:1059300002A8FFF79DFB044616F01C0F51D06CB176
:10594000042C08D1FFF754FE20B102A8FFF79CFDFC
:10595000044600E0122446F0080609E09DF80E0017
:1059600010F0110F01D0072402E0700700D50824C1
:10597000B4BB300741D500F0C5FB07460A9839464D
:105980000E3000F051FE0A983946163000F04CFEF9
:105990000A992020C8720A99019800F04FFC074626
:1059A00000220A99019800F02BFE0A9800211C3071
:1059B00000F03AFE01980121C1708FB1D0F82C900F
:1059C0000022394602A800F0DFFD0446200014D171
:1059D0004946019800F041FD044601987F1EC760CA
:1059E0000BE054B99DF80E00C10601D5042404E073
:1059F000B10702D5C00700D007249CB9300701D5F4
:105A000046F040060198C06A68620A98A862700869
:105A100001D0012100E0002102A800F0CBFB2861A9
:105A200000B90224ECBB0A99019800F007FCA860B9
:105A30000A981C3000F015FCE860C5F82C8001982D
:105A400028600198C088A8802E7585F81580C5F853
:105A50002080C5F8188005F130004FF40072002155
:105A6000814600F0F4FCB0062AD5EE68CEB1AE61F6
:105A7000019840894702A9680AE0284600F0E0FA48
:105A80000146012900D80224481C00D10124F61B3C
:105A90000CB9BE42F1D8E9611CB9F00510D00198EB
:105AA00000E00DE0FFF737FB78B100EB56222A62E9
:105AB0000198012349464078FFF772FD00B10124A7
:105AC0000CB1C5F8008020461BE70224F8E733B587
:105AD0008DB00D46002201A90DA800F037F904464B
